S01800006275696C642F6D6963617A2F6D61696E2E73726563E5
S11300000C9461000C94EB060C94F5060C94FF061A
S11300100C9409070C9413070C941D070C94E50920
S11300200C9427070C9480000C9480000C94A32556
S11300300C94DC0F0C94B5060C94CB060C94AE0710
S11300400C94A4060C9410120C9480000C94800060
S11300500C9480000C9431070C9480000C94800064
S11300600C94C0060C9480000C9480000C948000C6
S11300700C9480000C9480000C9480000C948000FC
S11300800C9480000C9480000C948000AA123B1302
S113009041139313AF13B713F113B614D914EE1419
S11300A06E18A118F6182319C520A012CB21D92146
S11300B009220C22162271220523242300081C186D
S11300C0141011241FBECFEFD0E1DEBFCDBF11E06D
S11300D0A0E0B1E0E2EFF6E500E00BBF02C007905C
S11300E00D92A031B107D9F713E0A0E1B1E001C04E
S11300F01D92A53DB107E1F70E947D230C94782B56
S11301000C9400008FB7F894992708958FBF089531
S1130110282F9FB7F894E82FFF27ED57FE4F8081D3
S11301208F3F81F4E091D103E21771F40BC0209367
S1130130B90304C0FF27ED57FE4F20832093D1035A
S113014020E007C025E005C08091B9038F3F91F7F7
S1130150EECF892F99278FBF822F992708957FB7D4
S1130160F89462B720912C0130912D0140912E0119
S113017050912F0106B601FE0FC081B792B7280F28
S1130180311D411D511D2F5F3F4F4F4F5F4F290FB1
S1130190311D411D511D04C0260F311D411D511D2E
S11301A0872F99278FBFCA01B9010895982F969573
S11301B096959695EDE7F1E0E90FF11D877021E042
S11301C030E002C0220F331F8A95E2F78081822338
S11301D099270895982F969596959695EEEEF2E0C8
S11301E0E90FF11D877021E030E002C0220F331FB8
S11301F08A95E2F780818223992708958FB7F8942E
S113020099272BB334E023272BBB8FBF089580910C
S1130210BC03882319F02FE170E002C078E026E0E7
S1130220622FEFB7F8948091A7018E7F8093A70186
S113023087B1982F9F71829586958695837019F062
S113024080E090E012C0822F8850863118F081E05F
S113025090E00BC040E050E03327892F99272817FE
S1130260390711F441E050E0CA01982F9170990FB9
S11302708091A7018178262F2F71422F440F440FBC
S1130280892B842B8093A701332727B9783059F51C
S11302908091BA039091BB0321E08638920718F04D
S11302A087E090E01FC0833C910518F086E090E061
S11302B019C08136910518F085E090E013C08033B1
S11302C0910518F084E090E00DC08831910518F094
S11302D083E090E007C00C9718F082E090E002C041
S11302E080E090E0782F7770887D872B886D992740
S11302F086B98E2F99278FBF0895662349F48FB747
S1130300F89499272BB332E023272BBB8FBF02C06D
S11303100E94FE00109219020895DC018C91825112
S1130320FD01E80FF11D84858E3329F5A654B140F3
S113033011F56623D9F48091B6028F5F8093B602DB
S1130340E0917B01F0917C0120813327322F222719
S113035081819927282B392B8091000190910101EB
S11303602817390719F484818F5F848380912002D0
S11303708D7F809320020895FC0182819927582F54
S1130380442781819927482B592BCA01892F992702
S113039086958695837090708230910559F08330EC
S11303A0910559F0892B19F420E030E008C02CE9BC
S11303B03FEF05C022E030E002C028E030E0CA018F
S11303C084E0989F812D992711248230910559F05A
S11303D08330910559F0892B19F480E090E008C02E
S11303E08CE99FEF05C082E090E002C088E090E0D5
S11303F0280F391F2A5F3F4FCF01820F931F0895A3
S1130400282F9FB7F894662349F0E82FFF27EF5C65
S1130410FC4F8081882311F021E006C0E22FFF27E2
S1130420EF5CFC4F608320E0892F99278FBF822FD8
S113043099270895E82F8FB7F894282F332790E051
S1130440FF27EF5CFC4F8081861709F491E02FBFF2
S1130450892F99270895882311F06E9A08956E982C
S11304600895882311F06F9A08956F98089580E095
S11304700E942B02BA9ABB98B99AB89A6C9A80E0F7
S11304800E9431026B986A9881E00E942B02709A54
S11304908DB18C7F8DB908950F931F93CF93DF9304
S11304A0182F8FB7F894C82FDD270C2F61E080E058
S11304B00E940002882321F0CFBF85E090E024C091
S11304C0809105018823A1F480911601823081F482
S11304D009C082E080931601109205010E94370240
S11304E0B89AC0981093020180E00FBF99270CC0FE
S11304F080911601882369F38FB7F8949927109295
S113050031038FBF81E0F1CFDF91CF911F910F9124
S113051008951F93182F81E00E942B021FB9779B27
S1130520FECF8FB199271F9108958F929F92AF921A
S1130530BF92CF92DF92EF92FF920F931F93CF93CC
S1130540DF938FB7F8949927C090CB03D090CC0356
S11305508090250390902603C091E502D091E60295
S11305602091290130912A01EAE0AE2EB12CAC0E83
S1130570BD1E2A153B0508F459018FBF7401EC0E0A
S1130580FD1E86010C0F1D1F14C0C114D10419F0E7
S1130590F801808101C080E00E94890281149104E5
S11305A011F0F701808321960894E11CF11C0F5F80
S11305B01F4FC5010197C817D90738F381E00E947E
S11305C031029FB7F894C114D10431F0CC0EDD1E72
S11305D0F60180818FB901C01FB8D093E602C093A1
S11305E0E502892F99278FBF80E090E0DF91CF91BA
S11305F01F910F91FF90EF90DF90CF90BF90AF903D
S11306009F908F9008952FB7F894332750932A0121
S1130610409329019093CC038093CB0370932603DA
S1130620609325031092E6021092E5022FBF452B3A
S113063029F08FB10E9495029927089587E00E94BE
S1130640880080E090E008958FB7F894992710927D
S113065033038FBF089580916002843018F080E0E6
S113066090E00895E0917B01F0917C0140E02081CD
S11306703327322F222781819927282B392B8091E8
S11306800001909101012817390709F441E081E044
S11306904827842F99270895CF92DF92EF92FF92F3
S11306A00F931F936C01FC01E080F18002811381A0
S11306B08091420190914301A0914401B091450180
S11306C0A8019701281B390B4A0B5B0BCA01B9011E
S11306D00E94612920917E0130917F014091800127
S11306E0509181010E943B2A0E942A292091A00155
S11306F03091A1014091A2015091A301260F371F0F
S1130700481F591FE20EF31E041F151FF601E08255
S1130710F182028313830E942B0399271F910F9167
S1130720FF90EF90DF90CF900895EAE6F2E0108218
S1130730399682E0E23BF807D1F78FB7F89499270E
S1130740109260028FBF08958FB7F8946091EC0205
S11307507091ED022CB53DB506B602FE04C06F5F84
S11307607F4F2CB53DB599278FBF88279927CB019B
S11307707727662744275527622B732B842B952BC9
S11307800895FC016683672F772767830895DF92B6
S1130790EF92FF920F931F938FB7F894282F33276C
S11307A0D22E91B782B746B7981711F041FF02C015
S11307B02FBF6AC08091E4028823E1F10E94AF0058
S11307C0E0902D03F0902E0300912F03109130033D
S11307D020913E0130913F014091400150914101EF
S11307E06E197F09800B910B6217730784079507B5
S11307F020F01092E40271E01EC02E0D3F1D401F38
S1130800511F80912C0190912D01A0912E01B09146
S11308102F01281B390B4A0B5B0B273E3105410581
S1130820510540F4822F223010F070E005C070E0D2
S113083082E002C070E086EE682F615000B601FCD1
S1130840FDCF82B7681709F46F5F20912C013091B6
S11308502D0140912E0150912F01DA01C901019619
S1130860A11DB11D860F911DA11DB11D82179307F6
S1130870A407B50710F4622F609561BFDFBE77232C
S113088019F08AE00E9488001F910F91FF90EF9069
S1130890DF900895AFB7F894BB27E1E0E093E4025A
S11308A060932D0370932E0380932F039093300352
S11308B020933E0130933F01409340015093410106
S11308C0AFBF0E94C7030895EF92FF920F931F9347
S11308D0CF93DF93DC01FC01BE9660E070E0E28020
S11308E0FF2400271127102F0F2DFE2CEE24ED01DD
S11308F02EA5332744275527522F44273327222751
S113090081819927AA27BB27DC0199278827282BCF
S1130910392B4A2B5B2B83819927AA27BB27282BAA
S1130920392B4A2B5B2BE22AF32A042B152B80E06C
S1130930E81680E0F80680E0080780E8180711F060
S113094061E070E0CB01DF91CF911F910F91FF9097
S1130950EF900895AF92BF92CF92DF92EF92FF9201
S11309600F931F93CF93DF938C010E94A403F8018C
S1130970BE96A280BB24CC24DD24DC2CCB2CBA2C48
S1130980AA24E801EEA4FF24002711271E2D002726
S1130990FF24EE242181332744275527A901332737
S11309A02227E22AF32A042B152B238133274427F9
S11309B05527E22AF32A042B152BAE28BF28C02A78
S11309C0D12A6A197B098C099D090E9461292DECA1
S11309D03CEC40EE51E40E94C2280E942A297B018B
S11309E08C010E94AF006E197F09800B910BDF917F
S11309F0CF911F910F91FF90EF90DF90CF90BF9018
S1130A00AF90089580E880937A01109216021092B4
S1130A10BD031092B8031092A9010895CF93DF93F8
S1130A20FC0115A6DC019E96ED011B821A82198237
S1130A3080E886A7DF91CF9108952F923F924F923D
S1130A405F926F927F928F929F92AF92BF92CF925A
S1130A50DF92EF92FF920F931F93CF93DF93CDB763
S1130A60DEB729970FB6F894DEBF0FBECDBF6FB7C0
S1130A706983F8942090220230902302409024024B
S1130A8050902502662477248824EEE4AE2E73E881
S1130A90B72ECC24DD24EE24FF2400E010E0222D28
S1130AA0332D442D552D662D772D882D90E00E94F1
S1130AB041272A833B834C835D836E837F838887AE
S1130AC09987822E932EA42EB52E2401350100E29F
S1130AD00E943F28A22EB32EC42ED52EA30192012C
S1130AE056954795379527952A0D3B1D4C1D5D1D41
S1130AF057FF05C05F772F5F3F4F4F4F5F4F2093E6
S1130B002202309323024093240250932502E98168
S1130B108E2F99278FBFCA01B90129960FB6F89471
S1130B20DEBF0FBECDBFDF91CF911F910F91FF901C
S1130B30EF90DF90CF90BF90AF909F908F907F9079
S1130B406F905F904F903F902F900895EF92FF9297
S1130B500F931F930E94A4037B018C0120916202D6
S1130B6030916302409164025091650280915C026D
S1130B7090915D02A0915E02B0915F02820F931F7B
S1130B80A41FB51FE216F3060407150730F08217F9
S1130B909307A407B50758F005C082179307A40765
S1130BA0B507E0F5E816F9060A071B07B8F59C0136
S1130BB0AD012E193F09400B510B213060E8360777
S1130BC060E0460760E0560768F180E090E8A0E046
S1130BD0B0E0E80EF91E0A1F1B1FE0926202F092B9
S1130BE06302009364021093650280E090E8AFEF23
S1130BF0BFEFE80EF91E0A1F1B1F2050304840406B
S1130C00504020935C0230935D0240935E02509307
S1130C105F0220E030E840E050E014C020E030E023
S1130C2040E050E08093620290936302A0936402D8
S1130C30B093650210925C0210925D0210925E0203
S1130C4010925F02A901B7012CB53DB5C9018E19F7
S1130C509F0903968417950720F0B9016D5F7F4FB4
S1130C6002C0640F751F6115710511F461E070E035
S1130C70615070407BBD6ABD80E186BF87B78061EB
S1130C8087BF1F910F91FF90EF9008950F931F93CB
S1130C900FB7F894112760936202709363028093F4
S1130CA064029093650220935C0230935D0240934A
S1130CB05E0250935F020E94A6050FBF1F910F9121
S1130CC0089597B79F7D97BF90E296BF882319F048
S1130CD08EB5806402C08EB58F7B8EBD87B780626F
S1130CE087BF80E090E00895AF92BF92CF92DF92E9
S1130CF0EF92FF920F931F93CF93DF93CDB7DEB79D
S1130D0028970FB6F894DEBF0FBECDBF20E070E089
S1130D10E0910001F091010132E14DE65CE46FE401
S1130D20809101019E2F28960FB6F894DEBF0FBE66
S1130D30CDBFDF91CF911F910F91FF90EF90DF9086
S1130D40CF90BF90AF9008951F920F920FB60F925D
S1130D5011248F9383B783BF00B600FCFDCF8F911E
S1130D600F900FBE0F901F90189578941F920F92BA
S1130D700FB60F9211240F900FBE0F901F9018956D
S1130D8078941F920F920FB60F9211240F900FBEFA
S1130D900F901F90189578941F920F920FB60F9290
S1130DA011242F933F938F939F932FB7F894332756
S1130DB08091EC029091ED0201969093ED02809364
S1130DC0EC022FBF9F918F913F912F910F900FBEF7
S1130DD00F901F9018951F920F920FB60F92112427
S1130DE00F900FBE0F901F9018951F920F920FB681
S1130DF00F9211240F900FBE0F901F9018951F9201
S1130E000F920FB60F9211240F900FBE0F901F90E8
S1130E1018951F920F920FB60F9211240F900FBEC8
S1130E200F901F9018951F920F920FB60F921124D6
S1130E300F900FBE0F901F9018951F920F920FB630
S1130E400F9211240F900FBE0F901F9018951F92B0
S1130E500F920FB60F9211240F900FBE0F901F9098
S1130E6018951F920F920FB60F9211242F933F9350
S1130E704F935F936F937F938F939F93AF93BF939E
S1130E80EF93FF9344B155B178948FB7F8949927B1
S1130E902091A701322F3695317021708FBF222304
S1130EA031F533988091B702813021F0823009F016
S1130EB044C008C0332341F05093290340932803CE
S1130EC087E112C0332319F40E94070136C010923F
S1130ED0B7028091BC03882381F5109226025093B7
S1130EE09F0140939E0185E10E94880026C08FB730
S1130EF0F89499278FBF2FB7F894332786B1582FCA
S1130F005770482F4072987D942B952B8074977B53
S1130F10982B90619F77892F992786B9887D842B98
S1130F20852B87738061992786B9887D842B852BCF
S1130F30877B8069992786B92FBFFF91EF91BF9175
S1130F40AF919F918F917F916F915F914F913F915D
S1130F502F910F900FBE0F901F9018951F920F9214
S1130F600FB60F9211242F933F934F935F936F9378
S1130F707F938F939F93AF93BF93EF93FF9383B725
S1130F8083BF00B600FCFDCF81B799270196AA273D
S1130F90BB2720912C0130912D0140912E015091BD
S1130FA02F01280F391F4A1F5B1F20932C013093F8
S1130FB02D0140932E0150932F0178940E94C70372
S1130FC0FF91EF91BF91AF919F918F917F916F911D
S1130FD05F914F913F912F910F900FBE0F901F90F3
S1130FE01895EF920F931F93AE2D99E0899FF0010E
S1130FF01124E151FD4F4083518362837383048341
S1131000158326833783A17080858E7F8A2B826027
S113101080878BE00E9488001F910F91EF900895C4
S1131020AF92BF92CF92DF92EF92FF920F931F93F2
S1131030F82E5A016B010E94AF00AB01BC01EE24F3
S1131040960185018F2D0E94F1071F910F91FF904A
S1131050EF90DF90CF90BF90AF9008951F93CF9300
S1131060DF9380912201882319F081E090E053C03E
S11310708FB7F894282F3327122F809125018823C6
S113108049F581E08093250110921C022FBF8FB790
S1131090F8949927379A8FBF8FB7F894C82FDD2714
S11310A09C2F80910E01813099F48091250181302B
S11310B021F486E10E94880009C0823049F48091BD
S11310C01C0280930E0183E080932501CFBF21C0D1
S11310D09FBF1FC080911C02882311F42FBF19C029
S11310E080E00E94D600882319F085E090E007C0D4
S11310F080917D01816080937D0180E090E01FBF3D
S1131100282F882319F481E080932201822F9927C4
S113111002C020E0F8CFDF91CF911F9108950F9383
S11311201F93182F0FB7F89461E080E00E9400022B
S1131130882371F510930201809105018823A9F594
S113114080911601823089F586E00CC00E94370236
S113115080911601882349F481E08093160110924E
S1131160AA0188E00E9488002AC0809161028F3F12
S113117031F5E0910401EE2311F11CC0109203013A
S113118004C0FF27EF59FD4F10821092040117C0CD
S113119081E090E002C0880F991F1A95E2F7209130
S11311A01501282B209315010AC08091160188236C
S11311B0E1F6CCCF809103018F3F19F7DFCF802F69
S11311C099278FBF80E090E01F910F9108951F939E
S11311D083E00E944C029927182F882319F083E09A
S11311E00E948F08812F99271F910895CF92DF9233
S11311F0EF92FF920F931F93CF93DF938C01F62E00
S11312006A01E22E8FB7F894C82FDD2760E080E0F2
S11312100E941A02882321F0CFBF80E090E01EC014
S1131220CFBF0F0D111D802F80680E948902F82EF8
S113123016950795802F807C0E9489020E2D0AC086
S1131240EE2DFF27E01BF109EC0DFD1D80810E94AE
S1131250890201500023A1F78F2D9927DF91CF91A7
S11312601F910F91FF90EF90DF90CF900895CF934F
S1131270DF93CDB7DEB72C970FB6F894DEBF0FBE61
S1131280CDBF8FB7F894282FAE014F5F5F4FDA01BF
S1131290E3E5F3E088E001900D928150E1F780915D
S11312A01A0290911B028987892F99278A87809136
S11312B06602909167028B87892F99278C872FBFAD
S11312C02CE060E080E691E00E94F6082C960FB6D0
S11312D0F894DEBF0FBECDBFDF91CF9108951F9369
S11312E0CF93DF93182F8FB7F894C82FDD2760E0D2
S11312F080E00E941A02882321F0CFBF80E090E0B2
S113130005C0CFBF812F0E9489029927DF91CF9119
S11313101F910895EF92FF920F931F93CF93DF9342
S1131320182F7B01042F8FB7F894C82FDD2760E0B6
S113133080E00E941A02882321F0CFBF80E090E071
S113134014C0CFBF1064812F99279093B302809368
S1131350B2020E948902182F402F5527B70180E05E
S113136090E00E940303812F9927DF91CF911F9171
S11313700F91FF90EF900895C098609126017091AD
S1131380270141E08FE30E948A09089582E090E0FA
S113139090939C0180939B0181E08093160220E04E
S11313A030E080910201843011F421E030E0232BFD
S11313B029F484E00E944C02882319F40E94BC0999
S11313C0089584E00E948F0808951F920F920FB62B
S11313D00F9211242F933F934F935F936F937F93B7
S11313E08F939F93AF93BF93EF93FF9380919B0150
S11313F090919C01019749F482E090E090939C01C4
S113140080939B010E94C60905C08091A9018F5F4A
S11314108093A901FF91EF91BF91AF919F918F911B
S11314207F916F915F914F913F912F910F900FBEDC
S11314300F901F9018951F9380911501882309F030
S11314404BC0109102011F3F09F046C060E00E94AA
S11314501A02882309F440C081E080935D038091DF
S113146082018823E1F110925D0385E090E045C09C
S1131470923069F5C09A8091030120E030E08F3FFB
S113148011F421E030E0232BE9F4109305018F3FA0
S113149019F42FEF30E00DC0282F3327F901EF594D
S11314A0FD4F8081809303018F3F11F41093040159
S11314B010832093AA0181E08093160188E00E94A2
S11314C0880005C0109305011092160111C0809187
S11314D01601882369F00FC081E090E00EC080916E
S11314E0050190911601882319F2923021F0EFCF73
S11314F080E00E942B0280E090E01F9108951F93EA
S1131500CF93DF939FB7F894C92FDD271C2F9091B9
S11315100201981721F0CFBF81E090E03AC08FEF2D
S113152080930201309115013323F1F48FB7F894BD
S11315309927109231038FBF0E941B0ACFBF11C09D
S11315402093020181E090E002C0880F991F4A9520
S1131550E2F7809538233093150186E00E948800D5
S11315601FBF80E090E015C080E065E0E32FFF2717
S11315700E94BD2A292F492F5527CF01042E02C0CE
S1131580959587950A94E2F780FDDACF822F8F5FD5
S1131590EFCFDF91CF911F9108951F93CF93DF93E6
S11315A08FB7F894C82FDD271C2F80919B01909151
S11315B09C01892B29F484E00E947F0ACFBF1EC0BE
S11315C0109216028091A901882311F0B79904C0E2
S11315D00E9908C0882319F081508093A9010E94B4
S11315E0C6090BC081E090E090939C0180939B011D
S11315F01092A90184E00E947F0A1FBFDF91CF915E
S11316001F9108950E940205C09AC09888E00E9424
S11316106F0988E00E946F09C09A84E00E947F0AE3
S11316200E94CD0A0895FF920F931F93CF93DF93E7
S1131630F82E8B018FB7F894C82FDD2760E080E087
S11316400E941A02882321F0CFBF80E090E00CC0F2
S1131650CFBF8F2D0E948902812F99270E94890272
S1131660802F0E9489029927DF91CF911F910F91BA
S1131670FF9008951F931FB7F8948091A8018823C1
S113168019F460E070E009C060E08091CA03882327
S113169009F461E081E06827772780911D0288239F
S11316A019F480E090E00AC090E08091520388230E
S11316B009F491E081E09827892F9927762F6627EE
S11316C0770F770F770F24E0880F991F2A95E1F79A
S11316D0826E9262682B792B81E10E94130B812F19
S11316E099278FBF1F9108958FB7F8949927609118
S11316F05C038FBF85E0689FB0011124625D7E4F5B
S1131700706488E10E94130B0895EF92FF921F9377
S1131710CF93DF93E0901E02F0901F02F70182A5A1
S11317209927182F882309F41FE1C0988091A601F6
S1131730811749F0612F77276F717070606E706840
S113174085E10E94130B1093A601F70110818FB756
S1131750F894C82FDD2760E080E00E941A028823F5
S113176011F0CFBF12C0CFBF8EE390E09093B302CD
S11317708093B2028EE30E9489021150412F5527B3
S113178060E070E0C7010E940303DF91CF911F91D5
S1131790FF90EF9008950F931F93CF93DF93EC0185
S11317A00FB7F89411270E94BC01FC018FE38083DA
S11317B00FBF1092C0031092BF0361E082E00E9449
S11317C00002882319F085E090E072C080915E03E6
S11317D08F5F80935E0381508B838FB7F894082FBB
S11317E0112762E081E00E941A02882329F40FBFC6
S11317F00E94240381E05BC08FB7F894992724E00A
S1131800209332038FBFD093E302C093E2020FBF51
S1131810FE013196818129819927982F88273327C2
S1131820822B932B80729C7C8983892F99278183B7
S11318302981982F882733272164822B932B89832E
S1131840892F992781831CA618A619A619AA18AA54
S11318501FA680E88EA761E0609335034091E20201
S11318605091E3028FB7F894282F33278091170102
S1131870909118018830910511F0019711F02FBF54
S113188015C082E090E09093180180931701609353
S1131890D40350931F0240931E0210922B012FBFBA
S11318A00E94E708882311F40E94850B80E09927A1
S11318B0DF91CF911F910F910895CF93DF93DA01B8
S11318C0422F2D3118F082E090E05EC0ED018B874D
S11318D06E83872F99278F832FB7F89433278091AE
S11318E01A0290911B022FBFFD018483892F99272F
S11318F085832FB7F89433278091060190910701CF
S11319002FBF8887892F99278987319681812981DB
S11319109927982F8827332720643868822B932BA4
S11319208983892F99278183435F4C934D508091FC
S11319300901882359F010920901642FCD010E94F6
S1131940CB0B9927282F8823A9F417C0842F992714
S11319509093B9028093B802B0931C01A0931B0129
S11319608CE00E94880080910901882349F489E071
S113197090E00AC08FEF80930901822F992704C059
S11319801092270280E090E0DF91CF910895CF93E9
S1131990DF93582FFB01823018F081E090E033C0D0
S11319A0C82FDD27CC0FDD1FC851DD4F88819981F9
S11319B0892B19F085E090E026C079836883435F22
S11319C040834D5080910C01823018F480E090E007
S11319D01AC0838567817727762F66272681332768
S11319E0622B732B50930C01242FAF010E945D0CCA
S11319F09927282F882329F082E080930C011982EB
S1131A001882822F9927DF91CF910895AF92BF92C8
S1131A10CF92DF92EF92FF920F931F93CF93DF93B6
S1131A205B016C01C0E0D0E0EFEEF2E0608561FFA5
S1131A3054C12081318142815381E480F580068143
S1131A401781D601C501821B930BA40BB50B8E1510
S1131A509F05A007B10708F440C160FF03C06D7F74
S1131A60608708C02E0D3F1D401F511F2083318306
S1131A7042835383C33009F4D1C0C43030F4C1303D
S1131A8059F0C23009F02FC14DC0C43009F4DAC096
S1131A90C53009F028C1E6C0809128018823E1F50A
S1131AA0E0917B01F0917C01808121819927982F1D
S1131AB088273327822B932B8F5F9F4FA1F480912C
S1131AC0B6028F5F8093B602853068F014828091ED
S1131AD0000190910101E0917B01F0917C018183EF
S1131AE0892F99278083E0917B01F0917C0180818B
S1131AF021819927982F88273327822B932B8F5F57
S1131B009F4F09F4F0C08091200281FDECC08260F7
S1131B10809320028EE060C0809100038D7F8093CB
S1131B200003E1C0809121028A3009F041C0809114
S1131B301902882321F5AAEBB1E0E6E3F3E08CE196
S1131B4001900D928150E1F76FEF7FEF8EEA91E003
S1131B500E94C10383E98093B9014CE16EEA71E00C
S1131B6081E00E94C70C882321F481E0809319024C
S1131B7006C080911902882311F40E94FE0010927D
S1131B8021028091CD03882389F480913C03992715
S1131B90982F882720913D033327822B932B01967E
S1131BA080933D03892F992780933C031092CD03A2
S1131BB08FB7F894282F3327122F80911F01882381
S1131BC089F491E090931F0110925B032FBF8091E1
S1131BD02001882321F482E10E94880084C090932C
S1131BE0210181C080915B03882311F42FBF7BC046
S1131BF080E00E94EA00882319F085E090E007C0A5
S1131C008091EE0281608093EE0280E090E01FBF3D
S1131C10892B09F468C00E94FE0065C08091C60348
S1131C209091C703A091C803B091C9030196A11D67
S1131C30B11D8093C6039093C703A093C803B093C8
S1131C40C90351C0409138035527542F442780912C
S1131C5039039927482B592B6627772782E00E945E
S1131C60100841C09FB7F89420911F01222319F452
S1131C7021E030E00FC080910D01813019F020E0A7
S1131C8030E008C040E050E02150223010F441E040
S1131C9050E09A01892F99278FBF222321F18FB712
S1131CA0F894C82FDD279C2F80910D01813099F481
S1131CB080911F01813021F481E10E94880009C0D4
S1131CC0823049F480915B0380930D0183E080931B
S1131CD01F01CFBF08C09FBF06C021963996C630EA
S1131CE0D10509F0A3CE8BE00E948800DF91CF914B
S1131CF01F910F91FF90EF90DF90CF90BF90AF9026
S1131D0008951F93182F81E090E090931801809319
S1131D101701109282010E941B0A8FB7F894992729
S1131D20109311018FBF82E00E9488001F910895D3
S1131D30FF920F931F93CF93DF93082FEB01F42EA1
S1131D40E82FFF27EE0FFF1FE851FD4F118210828D
S1131D5080910C019927019662E070E00E94DD2ACF
S1131D60682F80930C0110E0462F5527FA01EE0FDF
S1131D70FF1FE851FD4FA081B181109799F0E62F24
S1131D80E695E695E695FF27E254FC4F8081992776
S1131D909A012770307002C0959587952A95E2F7CD
S1131DA080FF0DC0CA01019662E070E00E94DD2A46
S1131DB0682F1F5F1230C1F610930C0119C0609395
S1131DC00C016230A8F42C912D503327FD0167815A
S1131DD07727762F662786819927682B792BAD0183
S1131DE083850E945D0C882319F080E10E9488009D
S1131DF0002319F0013051F405C06F2DCE010E946B
S1131E008D0104C06F2DCE010E947D01DF91CF9121
S1131E101F910F91FF9008959B0180910C018230D6
S1131E2068F4E82FFF27EE0FFF1FE851FD4F608194
S1131E3071816217730711F40E94980E089561E08E
S1131E4081E00E9400028823E9F48FB7F894282FD8
S1131E5033278091120190911301892B11F02FBF28
S1131E6020C081E090E090931301809312012FBF72
S1131E70DD9A0E94A40324E130E040E050E00E9497
S1131E8046060FC062E081E00E941A02882319F01E
S1131E9089E090E0089561E081E00E941A028823BD
S1131EA019F080E090E0089585E090E00895CF92E5
S1131EB0DF92EF92FF920F931F93CFB6F894DD2435
S1131EC00E941D05DC01CB0166E470E00E94C92A72
S1131ED06BE0E62EF12CE80EF91EF092CF03E092AF
S1131EE0CE030E94A40300271127A80197010E9492
S1131EF04606CFBE1F910F91FF90EF90DF90CF90D9
S1131F0008951F93CF93DF938FB7F894C82FDD27DD
S1131F101C2F80911701909118010897C9F489E04A
S1131F200E946F0983E00E947F0AC09A81E090E0DA
S1131F3090931801809317018FB7F894992723E0A1
S1131F40209311018FBF82E00E948800CFBF30C070
S1131F50C0988091D403882311F085E001C084E007
S1131F600E946F0983FD09C080E00E946F0983FF0E
S1131F7004C085E090E020E003C083E090E021E02D
S1131F809093180180931701C09A1FBF222341F038
S1131F9010922B0183E00E947F0A0E94570F08C011
S1131FA00E94A40320E431E040E050E00E94460691
S1131FB0DF91CF911F91089578941F920F920FB6DD
S1131FC00F9211241F932F933F934F935F936F931B
S1131FD07F938F939F93AF93BF93EF93FF9387B7B1
S1131FE08F7E87BF78941FB7F89480915C0290919C
S1131FF05D02A0915E02B0915F020097A105B10558
S113200009F051C080911701909118018530910514
S113201061F18630910530F48330910549F00497DD
S113202081F51AC087309105F1F0089751F514C075
S1132030869B0FC084E090E0909318018093170171
S11320400E94A40327E030E040E050E00E944606EE
S113205018C00E94570F15C00E94E708882389F40E
S11320600E94810F0EC080E00AC089E00E946F09BF
S113207081E00E94610683E00E947F0A87E00E945B
S1132080810E8091120190911301019771F482E005
S113209090E09093130180931201DE98DE9A80E021
S11320A00E948F0802C00E94A605812F99278FBF26
S11320B0FF91EF91BF91AF919F918F917F916F911C
S11320C05F914F913F912F911F910F900FBE0F90F1
S11320D01F901895EF92FF920F931F93CF93DF9366
S11320E08B018091B2029091B30286FF40C18F7B35
S11320F08F3309F08EC1C0912601D09127015881F8
S113210050939D0180919B0190919C018530910594
S113211009F443C08630910509F48AC0029709F096
S11321201FC185E090E090939C0180939B014091B6
S11321307A01852F99270196242F332728173907E9
S11321404CF1B79906C00E9904C0451B4150409309
S11321507A0140919D014A32E8F44423A1F0BE0182
S11321606F5F7F4F483018F047E050E007C086E0CB
S113217090E090939C0180939B01552780E090E030
S11321800E94030346C110921602C09A84E00E9482
S11321907F0AE3C00E94020B3CC186E090E090936A
S11321A09C0180939B0180911D02882309F439C00E
S11321B0809152038823A9F5898185FF32C08F81DC
S11321C04E812FB7F89433276091660270916702AD
S11321D02FBF9927982F88275527842B952B86174F
S11321E0970759F08F812E819927982F88273327B5
S11321F0822B932B8F5F9F4FA1F48981877081304D
S113220081F4C09AC0988AE00E946F09C09AC0986D
S113221040919D0147502896BE018FE30E948A0990
S1132220F8C040919D01475055272896BE01A6CF7E
S1132230C09A8091A901882339F484E00E947F0A1E
S11322408091A901882311F0B7990AC00E9B08C098
S11322509091B803992321F080919D018B3038F43B
S113226080912601909127010E940E053DC0913076
S113227001F5E091BD03FF27EE0FFF1FEE0FFF1FD7
S1132280EC59FC4F2081318142815381E091260138
S1132290F091270121ABBB27A52F942F832F80AB6F
S11322A0CA01AA27BB2787A7252F332744275527E9
S11322B026A78091BD039927019668E070E00E94EB
S11322C0DD2A8093BD038091B80381508093B803C5
S11322D0882351F080912601909127010E940E05D8
S11322E01092BD031092B80380919D01FE01E80F86
S11322F0F11D808187FF31C0012B79F169816770FD
S1132300E0912601F0912701623019F5A0911E0297
S1132310B0911F02109709F1809117019091180153
S11323200797D9F4ED019B8183819817B1F487B79E
S11323308F7E87BF908181E08CA7E90FF11D829188
S1132340319688A780818F7789A780E00E94810ECB
S113235004C0613011F489E02AC00E94CD0A59C03A
S113236010921602C09A84E00E947F0A52C08E33F3
S113237009F04FC0C09A80911701909118010897F5
S1132380C9F4C09889E00E946F09C09A83E00E9452
S11323907F0A81E090E090931801809317018FB732
S11323A0F894992723E0209311018FBF82E00E94C3
S11323B088002FC08091D403882349F484E090E0FE
S11323C090931801809317010E94810F22C083E02B
S11323D00E947F0A83E090E0909318018093170194
S11323E00E941D05DC01CB0166E371E00E94C92A4D
S11323F07BE0E72EF12CE80EF91EF0923D01E0920D
S11324003C010E94A40300271127A80197010E9400
S11324104606DF91CF911F910F91FF90EF900895A1
S11324201F920F920FB60F9211242F933F934F9345
S11324305F936F937F938F939F93AF93BF93EF9328
S1132440FF932FB1E0912503F0912603309739F0E3
S11324508091E5029091E602E80FF91F20838091B4
S1132460E5029091E60201969093E6028093E502DC
S113247080E00E9431024091290150912A0180910B
S1132480E5029091E6028417950718F40E949502DC
S11324901CC060912503709126038091CB03909119
S11324A0CC0310922603109225031092CC031092B1
S11324B0CB0310922A01109229011092E602109285
S11324C0E5022FB120E00E946A10FF91EF91BF91C5
S11324D0AF919F918F917F916F915F914F913F91B8
S11324E02F910F900FBE0F901F9018952F923F922F
S11324F04F925F926F927F928F929F92AF92BF9210
S1132500CF92DF92EF92FF920F931F93CF93DF93BB
S1132510CDB7DEB7C05AD0400FB6F894DEBF0FBEB9
S1132520CDBFE82FFF27E831F10510F00C944623C6
S1132530EA5BFF4FEE0FFF1F0590F491E02D099425
S11325408091BE03882311F40C94462310E001E02B
S11325500C94A4210FB7F894112781E00E9461061E
S113256071E0E72EF12CF0921801E092170110921D
S11325701901109282011092A6010FBF0FB7F894AF
S113258011270E940205F0929C01E0929B01109297
S1132590160289B78F7B89BF80E488BF8AB78062BF
S11325A08ABF8AB78F7E8ABF89B7806489BF0FBF0D
S11325B08FB7F894082F112780911201909113017D
S11325C0049719F483E00E946F090FBF0FB7F894C2
S11325D01127C09A80E00E947F0A0FBF8FB7F8943A
S11325E0992722E0209332038FBF40913803552767
S11325F0542F4427809139039927482B592B662758
S1132600772782E00E9410081092210241E050E0F6
S113261060E070E083E00E941008109218021092AB
S113262017021092D3031092D20384E080932703FD
S11326301092C1031092C2031092C3031092C403F8
S11326401092C6031092C7031092C8031092C903D4
S11326501092E702E0E080E0FF27EE0FFF1FE65450
S1132660FD4F118210828F5FE82F8431A8F31092FE
S1132670E7020C9446238FB7F894992710923203FB
S113268073C08FB7F8949927F09011018FBF63E05E
S113269081E00E941A02882359F10FB7F894112798
S11326A0109218011092170187B78F7E87BF87B7E2
S11326B08F7D87BF83E00E947F0AC09A0FBF0FB748
S11326C0F894112710929C0110929B010E9402051C
S11326D0C09A89B78F7B89BF0FBF109213011092E4
S11326E01201DE98DD98DE9A81E00E94880007C01E
S11326F08FB7F894992722E0209332038FBF00917B
S1132700E2021091E3020E9424038091BF0390919E
S1132710C003892B11F00C9446238FEF8093090199
S11327204F2DB80185C58FB7F894282F3327122F62
S11327308091D003882319F581E08093D0038091A0
S1132740120190911301049721F481E00E948F08F3
S113275003C084E00E9488001FBF0C9446238FB7F7
S1132760F89499271092D0038FBF0C9446238FB707
S1132770F894282F332780911401882319F02FBF50
S11327800C9446232FBF80B3992736E096958795FE
S11327903A95E1F7182F11709091680280916902BF
S11327A08917D9F01917C9F484E090E090931301C4
S11327B0809312018FB7F894992721E02093140194
S11327C08FBF60E070E08DE10E94130B0E94370917
S11327D0C09AC09880E00E9488001093690285E046
S11327E070C08FB7F8949927109102018FBF1230EF
S11327F009F46BC0133038F4112369F0113011F06F
S11328000C9446234AC0133009F479C0143011F0F3
S11328100C944623A7C0C0988FB7F894082F1127AB
S113282080911201909113010297A1F583E090E049
S1132830909313018093120168E170E08DE10E948E
S1132840130B81E0809368021092140180B39927DE
S113285026E0969587952A95E1F78170907080938C
S1132860690285E00E94880081E00E946F096FE799
S113287072E08CE10E94130B0E94740B0E943A0BCD
S113288066E57AE287E10E94130B6FEF70E885E159
S11328900E94130B0FBF0C944623C09886E00E943D
S11328A06F090E94740B0E943A0B0E943709C09A68
S11328B0C09883E00E946F09C09A81E00E947F0A59
S11328C084E00E9488000C944623C0988FB7F89443
S11328D0082F112760E080E00E941A02882311F07B
S11328E00FBF0AC00FBF83E50E94890280E00E94E7
S11328F0890280E00E948902C09A82E02FC08FB7CB
S1132900F8949927209117018FBF243041F0283083
S113291051F0223011F50E94850B0C9446230E943D
S1132920810F0C944623C09889E00E946F09C09AD5
S113293083E00E947F0A8FB7F894992721E030E062
S113294030931801209317018FBF8FB7F8949927FC
S1132950109311018FBF82E0B4CF83E00E947F0AFD
S11329600C9446230E94BC090C9446230FB7F89498
S113297011274091290150912A01609125037091FA
S113298026038091CB039091CC03109226031092DE
S113299025031092CC031092CB0310922A011092BB
S11329A029011092E6021092E50220E00E946A10CA
S11329B071CF2FB7F89433278091AA018093050132
S11329C082E0809316012FBF80910501882311F0C6
S11329D00C944623B89AC09886E073CFA091260140
S11329E0B0912701FC91EF96FFAFEF979D012F0F58
S11329F0311DF9018081881F8827881FFD0183A765
S1132A00F90180818F77FD0181A721503040F901C0
S1132A108081FD0180A7A0912601B0912701FD01CD
S1132A2032818FB7F89499272091A8018FBF222370
S1132A3009F490C0832F9927969587959695879545
S1132A40837090708230910541F5878146812FB75C
S1132A50F894332760916602709167022FBF99271B
S1132A60982F88275527842B952B8617970719F4B9
S1132A7081E090E06CC0FD018781268140E050E058
S1132A809927982F88273327822B932B8F5F9F4F6B
S1132A9011F441E050E0CA015AC0039709F014C38D
S1132AA09E012B5F3F4F43E553E088E0FA0101901C
S1132AB0AF01F90101929F018150C1F79E012B5D85
S1132AC03F4FAE014B5F5F4F88E0FA010190AF01C9
S1132AD0F90101929F018150C1F79E01235F3F4F8D
S1132AE0AE014B5D5F4F88E0FA010190AF01F9013F
S1132AF001929F018150C1F79E012B5E3F4FAE01B1
S1132B00435F5F4F88E0FA010190AF01F901019240
S1132B109F018150C1F79E01235E3F4FAE014B5E82
S1132B205F4F88E0FA010190AF01F90101929F0122
S1132B308150C1F748E050E0BE01635E7F4FCD0194
S1132B4006960E94642B892B09F0BEC203C0882319
S1132B5009F4BAC2EF96FFADEF97FD3008F4B4C2A2
S1132B60E0902601F0902701C158DF4FF982E882F6
S1132B70CF57D040F7012281822F992736E09695CE
S1132B8087953A95E1F7039719F468E070E002C07D
S1132B9062E070E0822F99279695879596958795A0
S1132BA083709070039719F488E090E002C082E08B
S1132BB090E0C158DF4F08811981CF57D0400A5F98
S1132BC01F4F40E050E020E030E0F801E80FF91F2B
S1132BD006501040C158DF4F19830883CF57D040A7
S1132BE005C08191480F511D2F5F3F4F26173707AE
S1132BF0C4F3C158DF4FE881F981CF57D0406381D6
S1132C008FEF8093C5038FB7F894782F20E030E0DE
S1132C10E0E3F1E0808191818417950731F48281AA
S1132C20861709F482C12093C5032F5F3F4F339663
S1132C302430310579F77FBF9091C5033FB7F894ED
S1132C409F3F21F080911A01891799F420911A016C
S1132C50822F9927FC01EE0FFF1FE80FF91FE05D9B
S1132C60FE4F5183408362832F5F237020931A01A8
S1132C700CC0892F9927FC01EE0FFF1FE80FF91FE5
S1132C80E05DFE4F518340836283832F99278FBF7A
S1132C900FB7F8941127C158DF4F88819981CF5716
S1132CA0D0400E94BC01FC0190810FBFC158DF4F8E
S1132CB0E881F981CF57D04083A5882309F4FAC16C
S1132CC09F3309F0F7C1878146812FB7F8943327E2
S1132CD060910601709107012FBF9927982F8827CB
S1132CE05527842B952B8617970761F087812681BA
S1132CF09927982F88273327822B932B8F5F9F4FF9
S1132D0009F0D8C1C158DF4FE881F981CF57D040CD
S1132D1083859927863021F08D3309F0CBC107C113
S1132D208FB7F89499272BB3F1E02F272BBB8FBFD4
S1132D3080911902882309F0BDC1C158DF4F8881F1
S1132D409981CF57D0400E946404882309F4B2C10A
S1132D50C158DF4F88819981CF57D0400E94AA047F
S1132D6069837A838B839C832091000130910101D4
S1132D702093EF01232F33272093EE01C158DF4F17
S1132D80E881F981CF57D040248545853327322FF8
S1132D9022275527242B352B2093F101232F33276A
S1132DA02093F0016093F501272F382F492F5527E1
S1132DB02093F4019C01442755272093F301692FA4
S1132DC07727882799276093F201CE0101960E9404
S1132DD04C038093FE0169807A808B809C80609292
S1132DE0F901DD24C92CB82CA72CA092F8011401F8
S1132DF0442455242092F701E92CFF2400271127AD
S1132E00E092F60160917E0170917F0180918001D2
S1132E10909181010E942F2920E432E44FE050E098
S1132E200E949E2A6093FD01272F382F492F552792
S1132E302093FC019C01442755272093FB01692F13
S1132E407727882799276093FA01E0917B01F09115
S1132E507C01808121819927982F88273327822B11
S1132E60932B80930002892F99278093FF018481FB
S1132E70809301028091600280930202BB24CC24DF
S1132E80DD24DC2CCB2CBA2CAA241E2D0027FF24F5
S1132E90EE24332444245524210133242224E2281B
S1132EA0F32804291529772488249924E628F72867
S1132EB008291929AE28BF28C02AD12AA092C603FE
S1132EC0B092C703C092C803D092C903EF96FFAD76
S1132ED0EF97FF3011F40E94FE00809110018823C7
S1132EE009F0E8C08091FE01882309F0E3C08091D5
S1132EF00001909101010A9709F0DCC00E94AF0023
S1132F00AB01BC0191E0E92E0EE110E020E030E0DD
S1132F1084E00E94F107E09210018091FE0199275C
S1132F2080933F0310923E03C5C07FBFC3C0C15806
S1132F30DF4F88809980CF57D0408CE0E82EF12C69
S1132F408E0C9F1CC158DF4FA881B981CF57D04048
S1132F508C9182518401080F111DF80180818E33F8
S1132F6009F0A8C08091200280FDA4C0CD010E9478
S1132F706404882309F49EC0F8018181E2802381DE
S1132F80A480332744275527542F432F322F222739
S1132F909927AA27BB27B82FAA2799278827FF2470
S1132FA0002711278701FF24EE248E299F29A02BB7
S1132FB0B12BBB24CC24DD248A299B29AC29BD292F
S1132FC0282B392B4A2B5B2B205030404040504853
S1132FD009F470C0E0902A03F0902B03FEAEEDAE2E
S1132FE0C158DF4F08811981CF57D04010932B036C
S1132FF000932A03D8018C918251F401E80FF11D4A
S1133000A1806280E3802480C8010E94AA04FF2476
S113301000271127102F0F2DFE2CEE24BB24CC24C7
S1133020DD24DA2CCC24BB24AA24772488249924F4
S1133030430177246624A628B728C828D92833242E
S113304044245524A228B328C428D528EA28FB28D8
S11330500C291D2935E015950795F794E7943A95C1
S1133060D1F7E60EF71E081F191FC158DF4FE8817C
S1133070F981CF57D040E08EBB27A12F902F8F2D01
S1133080878BC801AA27BB27868BE12EFF24002744
S11330901127E58A809120028160809320028DE0CF
S11330A00E948800EDACFEACC158DF4FF982E88283
S11330B0CF57D040C158DF4F08811981CF57D04036
S11330C010932701009326018FB7F8949927109243
S11330D016028FBF0E94CD0A0C9446238091A4014E
S11330E0882361F52091600330916103409162036C
S11330F050916303EFB7F894FF2760912D0370910B
S11331002E0380912F0390913003E0903E01F090C4
S11331103F0100914001109141016E0D7F1D801F00
S1133120911FEFBF209360033093610340936203C8
S1133130509363031092A4010E944A040E94AF00BA
S113314040C00E94AF005B016C018FB7F8949927CF
S11331501092E4028FBF2FEF3FEF4FEF5FE760E085
S1133160EFEEF2E0808581FF1CC080819181A28115
S1133170B38186017501E81AF90A0A0B1B0BD80101
S1133180C701E480F58006811781E81AF90A0A0B61
S11331901B0BE216F306040715071CF4A80197019C
S11331A061E0399603E0E532F007E1F6662311F4B5
S11331B00C944623121613061406150634F0C601A1
S11331C0B5010E94060D0C944623209360033093AE
S11331D06103409362035093630381E08093A401ED
S11331E0C601B5010E944A040C944623909127021B
S11331F080910901981711F40C94462390930901C6
S11332009923E1F400911B0110911C016091B80213
S1133210C8010E94CB0B482F5527442311F40C946A
S113322046238FEF8093090160911B0170911C016B
S1133230F80183850E940C0F0C9446238FEF809332
S113324009010C94462300912A0310912B03BCE03E
S11332508B2E912C800E911EF8018485ADE0EA2E10
S1133260F12CE00EF11E2585A0917B01B0917C012B
S11332704C91FD0161819927D82ECC243327C22A91
S1133280D32A5527542F44277727462B572BC41668
S1133290D506C0F48091B602843038F480910001E0
S11332A0909101014817590769F0FD01C1828D2DE4
S11332B099278C93F8018089E0917B01F0917C013E
S11332C0848323C02C91FD014181F4018081F701A5
S11332D060813327322F22275527242B352B99271A
S11332E0982F88277727862B972B2817390709F0DB
S11332F048C7F4018481FD019481282F3327822F4C
S1133300891B18160CF03DC72483E0917B01F091D2
S11333107C01808121819927982F88273327822B4C
S1133320932B20910001309101018217930710F42F
S11333301092B6028401075F1F4FAF961FAF0EAF06
S1133340AF97F40181858401065F1F4FE5961FAF97
S11333500EAFE597E2849401255F3F4FE3963FAFBC
S11333602EAFE3972385A401445F5F4FE1965FAFDF
S11333704EAFE197A484332744275527542F432F76
S1133380322F22279927AA27BB27B82FAA279927A4
S11333908827FF24002711278701FF24EE248E2984
S11333A09F29A02BB12BBB24CC24DD248A299B2963
S11333B0AC29BD29282B392B4A2B5B2B29833A8333
S11333C04B835C83CE0101960E944C03C401059695
S11333D0E7969FAF8EAFE797F401858184010A5F7A
S11333E01F4FED961FAF0EAFED97E6809401295F56
S11333F03F4FEB963FAF2EAFEB972781A401485F79
S11334005F4FE9965FAF4EAFE997A0843327442717
S11334105527542F432F322F22279927AA27BB271A
S1133420B82FAA2799278827FF2400271127870167
S1133430FF24EE248E299F29A02BB12BBB24CC245E
S1133440DD248A299B29AC29BD29282B392B4A2B19
S11334505B2BE980FA800B811C81E21AF30A040BCE
S1133460150BE982FA820B831C830E942B038823A9
S1133470E1F484EF91E0A0E0B0E0E80EF91E0A1F49
S11334801B1F99EEE91693E0F90690E0090790E016
S1133490190758F080911D018F5F80931D018430BE
S11334A008F457C10E94950354C110925F0310920F
S11334B01D01EAE6F2E0AFEFAD96AFAFAD9721960E
S11334C01FAE219722243324210160E070E06FAF06
S11334D0AF96AEADBFADAF972C91E596AEADBFAD97
S11334E0E597EC90E396AEADBFADE3978C91E19692
S11334F0AEADBFADE197AC909927AA27BB27662450
S1133500782E892E9A2E332744275527522F442765
S113351033272227FF24002711278701FF24EE24C5
S11335202E293F29402B512BBB24CC24DD242A29CE
S11335303B294C295D29622A732A842A952A818190
S11335409281A381B481681A790A8A0A9B0ABFEF1F
S11335506B16BFEF7B06BFEF8B06BFE79B0610F031
S1133560108203C08081882321F4AD966FAFAD979C
S113357005C080915F038F5F80935F0362147304BF
S11335808404950430F0EFAC2196EFAE219713013B
S113359024016F5F7F4F39966830710509F097CF2A
S11335A0AD96FFACAD97F7FC08C080915F038F5FC9
S11335B080935F032196FFAE219721960FAD21974B
S11335C0802F992787FD9095FC0123E0EE0FFF1FC4
S11335D02A95E1F7E80FF91FE659FD4F81E0808352
S11335E0AF96AEADBFADAF978C91E596AEADBFAD26
S11335F0E597EC90E396AEADBFADE3972C91E196E1
S1133600AEADBFADE197AC90332744275527542F77
S1133610432F322F22279927AA27BB27B82FAA275F
S113362099278827FF24002711278701FF24EE24E8
S11336308E299F29A02BB12BBB24CC24DD248A29DD
S11336409B29AC29BD29282B392B4A2B5B2B2183A1
S1133650328343835483E796AEADBFADE7978C9135
S1133660ED96AEADBFADED976C90EB96AEADBFAD44
S1133670EB97EC90E996AEADBFADE9973C91AF9670
S1133680AEADBFADAF972C91E596AEADBFADE597AE
S11336902C90E396AEADBFADE397AC90E196AEADA2
S11336A0BFADE197BC91EE96BFAFEE97FF24002724
S11336B01127102F0F2DFE2CEE249927AA27BB27A4
S11336C0B82FAA2799278827772488249924430187
S11336D07724662486299729A829B929432F5527B1
S11336E066277727842B952BA62BB72BE82AF92A54
S11336F00A2B1B2BBB24CC24DD24DC2CCB2CBA2C96
S1133700AA24332744275527522F44273327222717
S11337103324442455242101332422242229332907
S113372044295529EE968FADEE97682E7724882488
S113373099242629372948295929A22AB32AC42A8F
S1133740D52AEA18FB080C091D09E582F6820783CD
S11337501087E0907E01F0907F010091800110912C
S113376081016396ECAEFDAE0EAF1FAF639720E010
S113377030E0EAE6F2E007C02F5F3F4F3996283089
S1133780310509F4FEC4AC962FAFAC97808181302B
S113379099F7F901A3E0EE0FFF1FAA95E1F7E20FF5
S11337A0F31FE659FD4F018112812381348167960D
S11337B00CAF1DAF2EAF3FAF679725813681478190
S11337C050856B962CAF3DAF4EAF5FAF6B9780913A
S11337D05F03E82EFF24002711272796ECAEFDAEE9
S11337E00EAF1FAF279789E0AC960FADAC970802D8
S11337F01001112423E732E0220E331E6F961CAE13
S11338001DAE1EAE1FAE6F97A3961CAE1DAE1EAEB0
S11338101FAEA397A4961FAEA497A5961FAEA59717
S1133820A6961FAEA697A7961FAEA797A8961FAEFB
S1133830A897A9961FAEA997AA961FAEAA97AB966A
S11338401FAEAB9788249924AA24BB24CC24DD245E
S1133850EE24E5C1D1018C91813009F0DCC1F10184
S1133860418052806380748067960CAD1DAD2EAD8F
S11338703FAD6797401A510A620A730AC301B20145
S113388027962CAD3DAD4EAD5FAD27970E94122B10
S1133890DA01C901BB0F880B982FDC01CF57DF4F2A
S11338A0288339834A835B83C158D040CB57DF4F89
S11338B08883C558D040CA57DF4F8883C658D04044
S11338C0C957DF4F8883C758D040C857DF4F888314
S11338D0C858D040A4960FADA497CF57DF4F888126
S11338E0C158D040080F81E0A4969FADA497091752
S11338F008F080E0A5961FADA597CE57DF4FA881AD
S1133900C258D0401A0FE1E0A596BFADA5971B178A
S113391008F0E0E0810F91E0811708F090E0E92BD6
S1133920182FA6962FADA697CD57DF4FF881C35811
S1133930D0402F0FF1E0A6968FADA697281708F078
S1133940F0E08E2F820F91E0821708F090E0F92BBF
S1133950282FA7963FADA797CC57DF4F9881C4581F
S1133960D040390FE1E0A796AFADA7973A1708F01A
S1133970E0E08F2F830F91E0831708F090E0E92BAC
S1133980382FA8964FADA897CB57DF4FB881C558AD
S1133990D0404B0FF1E0A8968FADA897481708F0D8
S11339A0F0E08E2F840F91E0841708F090E0F92B5B
S11339B0482FA9965FADA997CA57DF4F9881C6587B
S11339C0D040590FE1E0A996AFADA9975A1708F076
S11339D0E0E08F2F850F91E0851708F090E0E92B48
S11339E0582FAA966FADAA97C957DF4FB881C75809
S11339F0D0406B0FF1E0AA968FADAA97681708F034
S1133A00F0E09E2F960F81E0961708F080E08F2B50
S1133A10692FAB967FADAB97C857DF4F9881C858D5
S1133A20D040790F870FA4960FAFA497A5961FAF28
S1133A30A597A6962FAFA697A7963FAFA797A89648
S1133A404FAFA897A9965FAFA997AA966FAFAA9709
S1133A50AB968FAFAB97C301B20127962CAD3DADAA
S1133A604EAD5FAD27970E94F02A6F960CAD1DAD49
S1133A702EAD3FAD6F97060F171F281F391F6F9686
S1133A800CAF1DAF2EAF3FAF6F97F101458056804D
S1133A90678070846B960CAD1DAD2EAD3FAD6B97FA
S1133AA0401A510A620A730AC301B20127962CAD67
S1133AB03DAD4EAD5FAD27970E94122BDA01C901CF
S1133AC0BB0F880B982FDC01C757DF4F288339833E
S1133AD04A835B83C958D040C357DF4F8883CD588E
S1133AE0D040C257DF4F8883CE58D040C157DF4FF4
S1133AF08883CF58D040C057DF4F8883C059D04007
S1133B00C757DF4F0881C958D040080D81E0081518
S1133B1008F080E0C657DF4F1881CA58D040190D0D
S1133B20E1E0191508F0E0E0810F91E0811708F059
S1133B3090E0E92B182FC557DF4F2881CB58D04090
S1133B402A0DF1E02A1508F0F0E08E2F820F91E0A3
S1133B50821708F090E0F92B282FC457DF4F3881E3
S1133B60CC58D0403B0DE1E03B1508F0E0E08F2F4E
S1133B70830F91E0831708F090E0E92B382FC357A7
S1133B80DF4F4881CD58D0404C0DF1E04C1508F082
S1133B90F0E08E2F840F91E0841708F090E0F92B69
S1133BA0482FC257DF4F5881CE58D0405D0DE1E019
S1133BB05D1508F0E0E08F2F850F91E0851708F080
S1133BC090E0E92BC157DF4F6881CF58D0406E0D8C
S1133BD09E2F960F802E912EA22EB32EC42ED82E59
S1133BE0E92EC301B20127962CAD3DAD4EAD5FADBC
S1133BF027970E94122BA3962CAD3DAD4EAD5FAD21
S1133C00A397260F371F481F591FA3962CAF3DAF0C
S1133C104EAF5FAFA39749E050E0240E351EAC963B
S1133C205FADAC975F5FAC965FAFAC9758300CF468
S1133C3011CE6F966CAD7DAD8EAD9FAD6F9727960F
S1133C402CAD3DAD4EAD5FAD27970E94122B2DAB31
S1133C503EAB4FAB58AF67968CAD9DADAEADBFAD2F
S1133C606797A7960CAD1DAD2EAD3FADA797800FFE
S1133C70911FA21FB31F2DA93EA94FA958AD280F0C
S1133C80391F4A1F5B1F2DAB3EAB4FAB58AFA396FA
S1133C906CAD7DAD8EAD9FADA39727962CAD3DAD9C
S1133CA04EAD5FAD27970E94122B6B968CAD9DADE8
S1133CB0AEADBFAD6B97880D991DAA1DBB1D280F16
S1133CC0391F4A1F5B1F29AF3AAF4BAF5CAF2224A9
S1133CD033244424552466247724882499241DA657
S1133CE01EA61FA618AA19AA1AAA1BAA1CAAAAE6E3
S1133CF0B2E02396BFAFAEAF23972396EEADFFADF0
S1133D0023978081813009F0D6C181819281A3817A
S1133D10B481EDA8FEA80FA918AD8E199F09A00BB8
S1133D20B10B9C01AD01550F220B322FA9012B962B
S1133D308CAF9DAFAEAFBFAF2B972C962FAF2C9708
S1133D402D962FAF2D972E962FAF2E972F962FAF00
S1133D502F972896AFAC28972996BFAC29972A9617
S1133D60CFAC2A972B96DFAC2B97E22EF22E022FA4
S1133D70122F2A2D3B2D4C2D5D2D6E2D7E2D8E2D3B
S1133D809E2D0E944127CF56DF4F2883C159D04032
S1133D90CE56DF4F3883C259D040CD56DF4F4883CB
S1133DA0C359D040CC56DF4F5883C459D040CB566A
S1133DB0DF4F6883C559D040CA56DF4F7883C65950
S1133DC0D040C956DF4F8883C759D040C856DF4F0B
S1133DD09883C859D040022F020D81E0021508F0E3
S1133DE080E0CE56DF4F1881C259D040130DE1E078
S1133DF0131508F0E0E0810F91E0811708F090E0DE
S1133E00E92B182FCD56DF4F2881C359D040240DFC
S1133E10F1E0241508F0F0E08E2F820F91E0821774
S1133E2008F090E0F92B282FCC56DF4F3881C45985
S1133E30D040350DE1E0351508F0E0E08F2F830F19
S1133E4091E0831708F090E0E92B382FCB56DF4F31
S1133E504881C559D040460DF1E0461508F0F0E020
S1133E608E2F840F91E0841708F090E0F92B482FEF
S1133E70CA56DF4F5881C659D040570DE1E0571557
S1133E8008F0E0E08F2F850F91E0851708F090E0AF
S1133E90E92B582FC956DF4F6881C759D040680DA8
S1133EA0F1E0681508F0F0E09E2F960F81E0961778
S1133EB008F080E08F2BC856DF4F7881C859D04076
S1133EC0790D870F202E312E422E532E642E752EFF
S1133ED0892E982E2396EEADFFAD2397E580F680CC
S1133EE00781108529AD3AAD4BAD5CADE21AF30AFA
S1133EF0040B150B57016801DD0CAA08BA2C6501E7
S1133F00A80197016A2DAE2CB32EC42ED52EE62E11
S1133F10F62E062F162F28962FAD289729963FADFB
S1133F2029972A964FAD2A972B965FAD2B972C96FF
S1133F306FAD2C972D967FAD2D972E968FAD2E9726
S1133F402F969FAD2F970E944127C756DF4F288396
S1133F50C959D040C656DF4F3883CA59D040C556D8
S1133F60DF4F4883CB59D040C456DF4F5883CC59D8
S1133F70D040C356DF4F6883CD59D040C256DF4F7F
S1133F807883CE59D040C156DF4F8883CF59D04073
S1133F90C056DF4F9883C05AD0400DA5020F81E070
S1133FA09DA5091708F080E01EA5C656DF4FA8811D
S1133FB0CA59D0401A0FE1E0BEA51B1708F0E0E093
S1133FC0810F91E0811708F090E0E92B182F2FA5BD
S1133FD0C556DF4FF881CB59D0402F0FF1E0EFA445
S1133FE02E1508F0F0E08E2F820F91E0821708F072
S1133FF090E0F92B282F38A9C456DF4FF880CC590C
S1134000D0403F0DE1E088A9381708F0E0E08F2F99
S1134010830F91E0831708F090E0E92B382F49A92A
S1134020C356DF4F9881CD59D040490FF1E0A9A97B
S11340304A1708F0F0E08E2F840F91E0841708F0FF
S113404090E0F92B482F5AA9C256DF4FB881CE59B8
S1134050D0405B0FE1E0EAA85E1508F0E0E08F2FA6
S1134060850F91E0851708F090E0E92B582F6BA994
S1134070C156DF4FF880CF59D0406F0DF1E08BA9C6
S1134080681708F0F0E09E2F960F81E0961708F06D
S113409080E08F2B692F7CA9C056DF4F9881C05ACE
S11340A0D040790F870F0DA71EA72FA738AB49ABB8
S11340B05AAB6BAB8CAB2396AEADBFAD23971996C1
S11340C02396BFAFAEAF2397A25BB24009F015CEE3
S11340D0822D832984298529862987298829892964
S11340E011F12DA53EA54FA558A969A97AA98BA9B7
S11340F09CA90E945B297B018C01222D332D442D28
S1134100552D662D772D882D992D0E945B299B01B5
S1134110AC01C801B7010E94C22863966CAF7DAFA1
S11341208EAF9FAF63972FB7F89433276396ECACA9
S1134130FDAC0EAD1FAD6397E0927E01F0927F015E
S1134140009380011093810189AD9AADABADBCADF4
S11341508093A0019093A101A093A201B093A30125
S1134160EDA8FEA80FA918ADE0924201F092430118
S1134170009344011093450180915F038093600292
S11341802FBF809120028E7F98C00E94AF005B01F8
S11341906C0169837A838B839C83CE0101960E9490
S11341A04C03E0917B01F0917C018081218199276E
S11341B0982F88273327822B932B2091000130914D
S11341C001018217930791F5809142019091430177
S11341D0A0914401B091450196018501081B190B7A
S11341E02A0B3B0BD901C80180509040A040B0423B
S11341F074F12FB7F8943327A0924201B09243018F
S1134200C0924401D092450189819A81AB81BC81DD
S11342108A199B09AC09BD098093A0019093A1015F
S1134220A093A201B093A3012FBF11C08091B60245
S1134230853068F01092B6022183832F99278083FA
S1134240E0917B01F0917C0184818F5F84832981DB
S11342503A814B815C81E0917B01F0917C01208764
S1134260BB27A52F942F832F8783CA01AA27BB2797
S11342708683252F33274427552725838091600281
S11342808330F0F4E0917B01F0917C018081218105
S11342909927982F88273327822B932B209100016D
S11342A0309101018217930759F08091B6028F5F14
S11342B08093B602809120028D7F80932002E6C114
S11342C00E94AF007B018C010E94A403A60195010A
S11342D02E193F09400B510BF5E0220F331F441FE9
S11342E0551FFA95D1F7260F371F481F591F8EE324
S11342F080935B0120935F01BB27A52F942F832F0D
S113430080935E01CA01AA27BB2780935D01252FF4
S113431033274427552720935C016FEF7FEF86E412
S113432091E00E94C1038DE3809351014EE066E465
S113433071E080E00E94C70C91E0909373018823A0
S113434009F4A4C1B7CF000F2091BE03802F8223AC
S1134350F1F0E12FFF27EE0FFF1FE851FD4F4081E1
S1134360518111821082802F809528232093BE03CF
S1134370112319F0113059F405C063E0CA010E94F9
S11343808D0181C163E0CA010E947D017CC11F5F70
S11343901830C8F27BC180910C01E82FFF27EE0F83
S11343A0FF1FE851FD4F6081718141E00E94980E2A
S11343B06DC12FB7F894332780915B0380930D016F
S11343C083E080931F012FBF10910D018FB7F894E4
S11343D0282F3327922F80910E01882359F480913E
S11343E02501833039F42FBF80912301882309F0FC
S11343F04DC102C09FBF4AC182E08093B7021092B0
S1134400BC030E94070181E0809323011093A5015E
S11344103DC10E942E083AC180912201813009F0E9
S113442035C11D98159884E10C9461148FB7F894E4
S1134430C82E80912501833009F041C080910E017E
S11344408823E9F580917D01882309F007C1FFC025
S1134450ED2DE695E695E695FF274D2D5527E35876
S1134460FE4F9A012770307081E090E002C0880FFF
S1134470991F2A95E2F780952081282320830093B1
S1134480240112C00F5F1F4F0130110511F400E029
S113449010E0D02E802F0E94D6008823C9F60E1576
S11344A01F0581F74FEF50E040931C028FEF80937C
S11344B00E0181E08093250186E10E948800CFBE31
S11344C01092220180912101813011F40E942E0862
S11344D08FB7F894992710922101109220010C941F
S11344E0B41310922301A0909E01B0909F0180907C
S11344F026029090A5018FB7F894C82E80911F01D1
S1134500833009F041C080910D018915E9F580914E
S1134510EE02882309F0B1C0A7C0ED2DE695E6951B
S1134520E695FF274D2D5527E251FD4F9A0127703F
S1134530307081E090E002C0880F991F2A95E2F75D
S1134540809520812823208300931E0112C00F5FD1
S11345501F4F0130110511F400E010E0D02E802F20
S11345600E94EA008823C9F60E151F0581F74FEF54
S113457050E040935B038FEF80930D0181E08093C3
S11345801F0181E10E948800CFBE992009F07EC0FE
S1134590882029F00E94FE009FEFA92EB92EE091F9
S11345A02102EA3008F072C0AE2FAF5FFF27EE0F92
S11345B0FF1FE25CFC4FA1828B2D992780838091A1
S11345C0C6039091C703AF5FA0932102A150BB27FC
S11345D0AA0FBB1FA25CBC4FFD018183892F9927C1
S11345E08C9322E130E0EEEDF2E0808191819383BF
S11345F082832150304032970FEF2F3F3007A9F7C5
S1134600B092BB02A092BA0241C02FB7F8943327EC
S113461080911C0280930E0183E0809325012FBFBB
S113462080910E01882391F5159A1D9A0E94AF007E
S1134630AB01BC01E1E0EE2E0AE010E020E030E046
S113464085E00E94F10722C01092B7021FC081E0EA
S113465080930E0110922501379831CF8091240167
S1134660E82EFF2487010ECF81E080930D01109284
S11346701F018093200183E185CF80911E01E82EE4
S1134680FF24870164CF000F1F5F5ECEC056DF4F4B
S11346900FB6F894DEBF0FBECDBFDF91CF911F914F
S11346A00F91FF90EF90DF90CF90BF90AF909F90CD
S11346B08F907F906F905F904F903F902F900895D0
S11346C08091B9038F3FB1F0282F3327F901ED57BB
S11346D0FE4F80818093B9038F3F11F48093D103FF
S11346E08FEF80832F3F31F0822F0E94761281E07A
S11346F090E0089580E090E008951F93CF93DF93B6
S1134700CDB7DEB7E0970FB6F894DEBF0FBECDBFCE
S11347101FB7F89448E150E06FEF70E083E891E050
S11347200E94712B8FEF8093B9038093D10381E0B2
S11347308EBD88E080BF83E083BF8CB59DB54AE71A
S11347402CB53DB52817390708F44150442311F01E
S1134750C901F6CF92B782B78917E9F32CB53DB5F5
S113476092B782B78917E9F38CB59DB5821B930B79
S11347704096B5E096958795BA95E1F79093BB037B
S11347808093BA0313BE83B78EBD8EB580BF12BEAD
S11347901DBC1CBC8FEF86BF86B780937C0080B79E
S11347A0992787709070892BD1F7D29AD19AD09A91
S11347B0DA9AD99AD89A15BA8FEF84BBD498DC9830
S11347C016B81DBC1CBC87B7846087BF8EB5887FB4
S11347D084608EBD0E9460238823E1F710927D01DE
S11347E01092EE028FEF8093AB01E0E3F1E08FEFE4
S11347F09FEF918380831282339621E0EC33F2079A
S1134800C1F70E941D0560935E03809100019091A1
S113481001010196AA27BB278093220290932302C9
S1134820A0932402B093250280B7886080BF8BE0F8
S113483083BF86EE81BF87B7826087BF0E94C703AC
S113484084E893E090932701809326018E98B89A88
S11348508C988FEF8093610210923103109232038F
S11348601092330310923403B89AD69AD59A8FB71C
S1134870F894992720910601309107018FBF309356
S11348806702209366020E94740629A73AA74BA7E1
S11348905CA76DA77EA78FA798ABDE019196FE015A
S11348A0B99688E001900D928150E1F7DE015196AE
S11348B0FE01B19688E001900D928150E1F7DE018E
S11348C05996FE01719688E001900D928150E1F7AE
S11348D0A3E5B3E0FE01799688E001900D92815042
S11348E0E1F780910801992790931B0280931A02A3
S11348F08FE180932C038AE180935C030E94740609
S113490029A73AA74BA75CA76DA77EA78FA798AB4B
S1134910DE019196FE01B99688E001900D928150D6
S1134920E1F7DE011196FE01B19688E001900D9247
S11349308150E1F7DE011996FE01319688E001907D
S11349400D928150E1F7A3E5B3E0FE01399688E0CA
S113495001900D928150E1F7A3E5B3E0FD01379694
S11349609C9180818D939083319783E0E635F8079D
S1134970B9F781E08093A8011092CA0380931D02C5
S11349801092520380E090E0A0E0B0E080937E01BA
S113499090937F01A0938001B09381011092420112
S11349A01092430110924401109245011092A0010B
S11349B01092A1011092A2011092A3010E949503EA
S11349C082E591E090937C0180937B018FEF80934B
S11349D053018093520188E292E090932B038093D9
S11349E02A0384E0809320020E9460238823E1F755
S11349F0812F99278FBF78940E941F0F1092B602BF
S1134A008091000190910101E0917B01F0917C0182
S1134A108383892F992782830E941D0570706058B3
S1134A207C4FCB01AA27BB27AC01BD01440F551F06
S1134A30661F771F480F591F6A1F7B1F81E00E9462
S1134A4010081092280181E08093390310923803F2
S1134A50809100019091010180933B03892F992754
S1134A6080933A030E941F0F882311F00E94FE00D6
S1134A708FB7F894482F55274BC087B79927837071
S1134A809070892B19F4E5E0F0E013C080B7992702
S1134A9087709070892BD1F781B792B7891B8C30BE
S1134AA030F082B7853F18F4E3E0F0E002C0E2E0C2
S1134AB0F0E087B7887BC1F480917D008B7FA1F4FF
S1134AC06E9912C08AB190919A00892B887161F411
S1134AD08091740082FD08C0379B03C081E090E0A0
S1134AE005C085E090E002C080E090E025B78E1715
S1134AF008F4E82FFF27E454FF4FE491237E20625B
S1134B00E22BE5BF78948895F89485B78F7D85BFAF
S1134B108091B9038F3F09F4B0CF282F3327F901CF
S1134B20ED57FE4F80818093B9038F3F11F480933A
S1134B30D1038FEF80832F3F09F49FCF4FBF822F84
S1134B400E94761295CF78941F920F920FB60F920F
S1134B5011242F923F924F925F926F927F928F9285
S1134B609F92AF92BF92CF92DF92EF92FF920F93F8
S1134B701F932F933F934F935F936F937F938F93E1
S1134B809F93AF93BF93CF93DF93EF93FF93C6B5F8
S1134B90D7B58FB7F894282E0E94A4039B012C1B31
S1134BA03D0B442755272B013C01421A530A640A42
S1134BB0750A80911701909118018530910521F0B3
S1134BC0069709F0E0C0BFC086E090E0909318011A
S1134BD08093170131E0332E3092AC011092190109
S1134BE080E00E946106E0911E02F0911F0241AA3A
S1134BF0BB27A72D962D852D80ABC301AA27BB27E4
S1134C0087A7872D9927AA27BB2786A7E0911E028D
S1134C10F0911F0285A5882309F484C06081655042
S1134C2077274F01860E971EF4012081E18082814F
S1134C30A3809927AA27BB27BA2FA92F982F8827A3
S1134C40332744275527522F442733272227FF246D
S1134C50002711278701FF24EE242E293F29402B0A
S1134C60512BBB24CC24DD242A293B294C295D2942
S1134C70822B932BA42BB52B84199509A609B7096C
S1134C808383292F3A2F4B2F552722839D014427B5
S1134C90552721838B2F9927AA27BB278083C09868
S1134CA024E0A40180E090E00E94F608C09AF40198
S1134CB02081E1808281A3809927AA27BB27BA2F6C
S1134CC0A92F982F8827332744275527522F442765
S1134CD033272227FF24002711278701FF24EE24EE
S1134CE02E293F29402B512BBB24CC24DD242A29F7
S1134CF03B294C295D29822B932BA42BB52B840DA6
S1134D00951DA61DB71D8383292F3A2F4B2F552799
S1134D1022839D014427552721838B2F9927AA2776
S1134D20BB278083E0911E02F0911F02818185FFE1
S1134D3002C03092820183E00E947F0A87B78F7E8F
S1134D4087BF84997AC01092AC0181E00E94610609
S1134D50E0911E02F0911F02818185FF0FC087E060
S1134D6090E090931801809317010E94A40320E01F
S1134D7031E040E050E00E94460603C080E00E941B
S1134D80810E849B5AC080911901882391F58091EA
S1134D90AC01882371F511E01093AC010E94610607
S1134DA080B32091B803283098F4E091BD03E20F5A
S1134DB0FF27E770F070EE0FFF1FEE0FFF1FEC5997
S1134DC0FC4F40825182628273822F5F2093B8032A
S1134DD010931901D093B502C093B40284992DC0E5
S1134DE0992714E0969587951A95E1F7182F117075
S1134DF001C010E08091AC018130F9F41092AC0153
S1134E000E946106109219011123B9F48091B40231
S1134E109091B502C81BD90B2A9778F48091B803F6
S1134E20882319F081508093B80380911E029091D9
S1134E301F02009711F00E940E052FBEFF91EF9103
S1134E40DF91CF91BF91AF919F918F917F916F919E
S1134E505F914F913F912F911F910F91FF90EF9090
S1134E60DF90CF90BF90AF909F908F907F906F9086
S1134E705F904F903F902F900F900FBE0F901F9018
S1134E801895ACE2B0E0E7E4F7E20C942D2B222E67
S1134E90332E442E552E662E772E882E992EFE0103
S1134EA03196A8E01192AA95E9F729823A824B82B9
S1134EB05C826D827E828F829886FE013996B8E08C
S1134EC01192BA95E9F7A986BA86CB86DC86ED8677
S1134ED0FE860F87188B89819A81AB81BC8189A753
S1134EE09AA7ABA7BCA77C018D018FEF9FEFA0E031
S1134EF0B0E0E822F9220A231B2389A59AA5ABA5D1
S1134F00BCA51D014424552489859A85AB85BC859F
S1134F108DA39EA3AFA3B8A75C016D018FEF9FEF94
S1134F20A0E0B0E0A822B922CA22DB228DA19EA172
S1134F30AFA1B8A53D0188249924C801B701A601F1
S1134F4095010E949E2A69A37AA38BA39CA3C801FE
S1134F50B701A40193010E949E2A7B018C01C20126
S1134F60B101A60195010E949E2A5B016C01C20158
S1134F70B101A40193010E949E2A3B014C01EA0C59
S1134F80FB1C0C1D1D1D89A19AA1ABA1BCA19D01F7
S1134F90442755272E0D3F1D401F511F2A153B0541
S1134FA04C055D0540F480E090E0A1E0B0E0680EBF
S1134FB0791E8A1E9B1ECA01AA27BB27860D971D30
S1134FC0A81DB91D8D8F9E8FAF8FB8A3A90133275C
S1134FD0222789A19AA1ABA1BCA1A070B070280F0F
S1134FE0391F4A1F5B1F298F3A8F4B8F5C8FA98C07
S1134FF0BA8CCB8CDC8CED8CFE8C0F8D18A1FE0151
S1135000719698E011929A95E9F7ED8AFE8A0F8BD2
S1135010188F2D813E814F8158856DA17EA18FA16E
S113502098A50E949E2A3B014C012D853E854F8503
S1135030588969A57AA58BA59CA50E949E2A2D89CD
S11350403E894F89588D260F371F481F591F260D3B
S1135050371D481D591D2D8B3E8B4F8B588F6D88E6
S11350607E888F88988C2A2D3B2D4C2D5D2D662DA6
S1135070772D882D992DE2E1AC960C94492BA0E173
S1135080B0E0E5E4F8E20C942D2B222E332E442ECE
S1135090552E662E772E882E992E002309F466C08D
S11350A088E0FE01319611928A95E9F729833A83C3
S11350B04B835C836D837E838F829887E0E2E01B61
S11350C01E16CCF52D813E814F815885602F7727A0
S11350D067FD7095DA01C901062E04C0B695A7953F
S11350E0979587950A94D2F78D879E87AF87B88B5B
S11350F004C0220F331F441F551FEA95D2F789813C
S11351009A81AB81BC8104C0B695A7959795879584
S11351106A95D2F7282B392B4A2B5B2B29873A87A0
S11351204B875C8729843A844B845C846D847E84B9
S11351308F8498881BC01D861E861F86188A2E2F72
S1135140332727FD3095309521953F4F8D819E81E2
S1135150AF81B88504C0B695A795979587952A958C
S1135160D2F789879A87AB87BC87DCCF222D332D72
S1135170442D552D662D772D882D992DE2E16096CD
S11351800C94492B0CD03DC135D140F02CD130F0DA
S113519021F45F3F19F00EC1511167C111C142D111
S11351A098F39923C9F35523B1F3951B550BBB27EA
S11351B0AA2762177307840738F09F5F5F4F220F97
S11351C0331F441FAA1FA9F333D00E2E3AF0E0E890
S11351D030D091505040E695001CCAF729D0FE2FDC
S11351E027D0660F771F881FBB1F2617370748076E
S11351F0AB07B0E809F0BB0B802DBF01FF27935824
S11352005F4F2AF09E3F510568F0D4C02EC15F3F26
S1135210ECF3983EDCF3869577956795B795F7950B
S11352209F5FC9F7880F911D9695879597F9089503
S1135230E1E0660F771F881FBB1F6217730784079F
S1135240BA0720F0621B730B840BBA0BEE1F88F7AE
S1135250E095089504D06894B11107C10895EAD087
S113526088F09F5790F0B92F9927B751A0F0D1F04B
S1135270660F771F881F991F1AF0BA95C9F712C0D5
S1135280B13081F0F1D0B1E00895EEC0672F782FEE
S11352908827B85F39F0B93FCCF386957795679541
S11352A0B395D9F73EF490958095709561957F4FAD
S11352B08F4F9F4F089597FB0EF485D03EC0E8941E
S11352C009C097FB3EF490958095709561957F4F4A
S11352D08F4F9F4F9923A9F0F92F96E9BB279395F8
S11352E0F695879577956795B795F111F8CFFAF408
S11352F0BB0F11F460FF1BC06F5F7F4F8F4F9F4F39
S113530016C0882311F096E911C0772321F09EE896
S1135310872F762F05C0662371F096E8862F70E0FC
S113532060E02AF09A95660F771F881FDAF7880FD6
S11353309695879597F90895E894F92F96EBFF23AE
S113534081F0121613061406440B9395F69587956F
S11353507795679557954040FF23B9F71BC0992768
S11353600895882351F49850D2F7872B762F652F10
S1135370542F432F322F20E0B1F3121613061406D4
S1135380440B88233AF09A95440F551F661F771FE4
S1135390881FCAF755234AF4440F551F11F460FFC0
S11353A004C06F5F7F4F8F4F9F4F880F96958795EF
S11353B097F9089597F99F6780E870E060E0089591
S11353C09FEF80EC08959095809570956095509529
S11353D04095309521953F4F4F4F5F4F6F4F7F4F13
S11353E08F4F9F4F089500240A9416161706180627
S11353F00906089500240A941216130614060506D5
S11354000895092E0394000C11F4882352F0BB0F65
S113541040F4BF2B11F460FF04C06F5F7F4F8F4FC8
S11354209F4F089557FD9058440F551F59F05F3F03
S113543071F04795880F97FB991F61F09F3F79F0B2
S113544087950895121613061406551FF2CF469534
S1135450F1DF08C0161617061806991FF1CF8695B6
S11354607105610508940895E894BB27662777279A
S1135470CB0197F908950BD0C4CFB5DF28F0BADF7C
S113548018F0952309F096CF9BCF1124EECFCADFF5
S1135490A0F3959FD1F3950F50E0551F629FF00143
S11354A0729FBB27F00DB11D639FAA27F00DB11D9C
S11354B0AA1F649F6627B00DA11D661F829F222725
S11354C0B00DA11D621F739FB00DA11D621F839FAC
S11354D0A00D611D221F749F3327A00D611D231F82
S11354E0849F600D211D822F762F6A2F11249F57D0
S11354F050408AF0E1F088234AF0EE0FFF1FBB1FF3
S1135500661F771F881F91505040A9F79E3F510591
S113551070F050CFAACF5F3FECF3983EDCF3869552
S113552077956795B795F795E7959F5FC1F7FE2B3C
S1135530880F911D9695879597F90895629FD001DC
S1135540739FF001829FE00DF11D649FE00DF11D3A
S1135550929FF00D839FF00D749FF00D659FF00DE9
S11355609927729FB00DE11DF91F639FB00DE11DD6
S1135570F91FBD01CF0111240895991B79E004C0DE
S1135580991F961708F0961B881F7A95C9F780957E
S11355900895AA1BBB1B51E107C0AA1FBB1FA61776
S11355A0B70710F0A61BB70B881F991F5A95A9F7C8
S11355B080959095BC01CD01089597FB092E07268F
S11355C00AD077FD04D0E5DF06D000201AF47095E8
S11355D061957F4F0895F6F7909581959F4F0895B3
S11355E0A1E21A2EAA1BBB1BFD010DC0AA1FBB1FE3
S11355F0EE1FFF1FA217B307E407F50720F0A21B55
S1135600B30BE40BF50B661F771F881F991F1A94C1
S113561069F760957095809590959B01AC01BD01EB
S1135620CF01089597FB092E05260ED057FD04D00F
S1135630D7DF0AD0001C38F4509540953095219559
S11356403F4F4F4F5F4F0895F6F7909580957095B3
S113565061957F4F8F4F9F4F08952F923F924F92A6
S11356605F926F927F928F929F92AF92BF92CF92EE
S1135670DF92EF92FF920F931F93CF93DF93CDB7F7
S1135680DEB7CA1BDB0B0FB6F894DEBF0FBECDBF6F
S113569009942A88398848885F846E847D848C8440
S11356A09B84AA84B984C884DF80EE80FD800C8149
S11356B01B81AA81B981CE0FD11D0FB6F894DEBF2C
S11356C00FBECDBFED010895FB01DC0104C08D9137
S11356D00190801921F441505040C8F7881B990B60
S11356E00895DC0101C06D9341505040E0F70895E6
S10556F0FFCFE6
S11356F20100FFFFFFFF010022FFFFFF0201010083
S9030000FC
