:100000000C947C000C94C0050C94CA050C94D40587
:100010000C94DE050C94E8050C94F2050C94FC0598
:100020000C9406060C949B000C949B000C949B0073
:100030000C949B000C9410060C949B000C943804B8
:100040000C94DD0D0C94130E0C94EF040C94FA0434
:100050000C9405050C949B000C949B000C949B0045
:100060000C944C040C949B000C949B000C949B00EF
:100070000C949B000C9433050C949B000C949B00F7
:100080000C949B000C949B000C949B000C949B0084
:100090000C949B000C949B000C949B000C949B0074
:1000A0000C949B000C949B000C949B000C949B0064
:1000B0000C949B000C949B000C949B000C949B0054
:1000C0000C949B000C949B000C949B00DF1010116F
:1000D000311191115912B512E812051468137D13EC
:1000E0000C143C143F144A14A41415153515D710DC
:1000F000581500020E060C0411241FBECFEFD1E2EA
:10010000DEBFCDBF12E0A0E0B2E0E8EFF2E300E036
:100110000BBF02C007900D92AE30B107D9F713E0C4
:10012000AEE0B2E001C01D92A43FB107E1F70E942A
:10013000BB150C947B190C9400008FB7F894992789
:1001400008958FBF08958FB7F894992722B132E0B0
:10015000232722B98FBF08958FB7F894992722B12A
:1001600034E0232722B98FBF0895282F9FB7F89432
:10017000E82FFF27E15DFD4F80818F3F81F4E09103
:10018000EC03E21771F40BC020934B0304C0FF276C
:10019000E15DFD4F20832093EC0320E007C025E0C4
:1001A00005C080914B038F3F91F7EECF892F9927A0
:1001B0008FBF822F99270895882319F08CB580640A
:1001C00002C08CB58F7B8CBD0895882319F08CB547
:1001D000806802C08CB58F778CBD08950F931F93F4
:1001E00080E00E94DC000FB7F8941127229A239830
:1001F000219A209A8CB580618CBD80E00E94E50038
:100200008CB5877F8CBD8CB58B7F8CBD81E00E94C7
:10021000DC008DB581608DBD8CB58C7F8CBD0FBF32
:100220001F910F9108950F931F93CF93DF93182F72
:100230000FB7F89480910F02882311F40E94EE000A
:10024000802F99278FBF8FB7F894C82FDD272C2FC9
:1002500080910F02882361F481E080930F02109354
:100260008F0289E00E94B500CFBF80E090E021C0FE
:10027000E12FFF27E257FD4F80818F3F89F4E09106
:100280000902E11789F40CC01093080204C0FF278B
:10029000E257FD4F10831093090280E090E002C006
:1002A00085E090E02FBF05C0809108028F3F79F76D
:1002B000EBCFDF91CF911F910F910895FB0121E0CA
:1002C00030E002C0220F331F8A95E2F784A5822B0B
:1002D00084A708958FB7F8942091F7023091F8021F
:1002E0004091F9025091FA02E0918400F09185006A
:1002F000B09B08C02F5F3F4F4F4F5F4FE09184008E
:10030000F091850099278FBFC901772766279F0144
:1003100044275527622B732B842B952B0895FC01C2
:1003200082819927982F882721813327822B932B2D
:1003300025E0969587952A95E1F78170907008954C
:10034000AC01EFB7F8942091840030918500C90189
:10035000841B950B03968617970720F0B9016D5FF4
:100360007F4F02C0640F751F6115710511F461E0C4
:1003700070E061507040709389006093880082E063
:1003800086BB80916F00826080936F008E2F9927CB
:100390008FBF0895CF93DF93EC010E948F018823D4
:1003A00039F18A8129819927982F88273327822B31
:1003B000932B87749C7C81549848D1F48F814E8113
:1003C0002FB7F894332760910202709103022FBF78
:1003D00020E09927982F88275527842B952B86175F
:1003E000970709F021E081E02827822F992702C092
:1003F00080E090E0DF91CF910895FB0121E030E0B3
:1004000002C0220F331F8A95E2F784A58223992721
:100410000895EF92FF920F931F937C018FB7F8948A
:10042000992700911703109118030F5E1E4F109328
:10043000180300931703015111408FBF84E00E94FD
:10044000B500C801B7010E940A198A5D9E4F1F912D
:100450000F91FF90EF900895EF920F931F93AE2DA1
:1004600099E0899FF0011124E450FD4F40835183AE
:10047000628373830483158326833783A170808509
:100480008E7F8A2B8260808786E00E94B5001F9154
:100490000F91EF9008957FB7F8946091B20020918A
:1004A0002A0230912B0240912C0250912D02B99BCF
:1004B00011C08091B3009091B200280F311D411DF1
:1004C000511D2F5F3F4F4F4F5F4F290F311D411D72
:1004D000511D04C0260F311D411D511D872F992725
:1004E0008FBFCA01B9010895982F96959695969554
:1004F000E9E2F2E0E90FF11D877021E030E002C08F
:10050000220F331F8A95E2F780818223992708956D
:100510001F93CF93DF9380911402882319F081E019
:1005200090E057C08FB7F894282F3327122F80916F
:100530001702882369F581E08093170210928402E4
:100540002FBF2FB7F894332780917A00806880936B
:100550007A002FBF8FB7F894C82FDD279C2F80918A
:100560000C02813099F480911702813021F48FE0E0
:100570000E94B50009C0823049F4809184028093C2
:100580000C0283E080931702CFBF21C09FBF1FC022
:1005900080918402882311F42FBF19C080E00E944B
:1005A0007402882319F085E090E007C08091290249
:1005B00081608093290280E090E01FBF282F88236C
:1005C00019F481E080931402822F992702C020E061
:1005D000F8CFDF91CF911F910895982F969596951A
:1005E0009695EBEFF2E0E90FF11D877021E030E026
:1005F00002C0220F331F8A95E2F780818223992758
:10060000089580914F03882319F02FE150E002C034
:1006100058E026E0622F7FB7F894809146028E7FE3
:100620008093460280917C00982F9F7182958695D9
:100630008695837019F080E090E00CC040E033278D
:10064000892F99272817390709F041E081E04827C9
:10065000842F9927982F9170990F80914602817865
:10066000262F2F71422F440F440F892B842B809308
:100670004602332720937C00583059F580914C0373
:1006800090914D0321E08638920718F087E090E0C2
:100690001FC0833C910518F086E090E019C08136B8
:1006A000910518F085E090E013C08033910518F0B3
:1006B00084E090E00DC08831910518F083E090E06F
:1006C00007C00C9718F082E090E002C080E090E054
:1006D000582F5770887D852B886D992780937A00D5
:1006E000872F99278FBF0895DF92EF92FF920F9384
:1006F0001F938FB7F894282F3327D22E9091B300F1
:100700008091B20047B3981711F041FF02C02FBF8C
:1007100071C0809183028823E1F10E944B02E09036
:100720002202F090230200912402109125022091D0
:1007300051033091520340915303509154036E1969
:100740007F09800B910B621773078407950720F0D0
:100750001092830271E01EC02E0D3F1D401F511FDD
:1007600080912A0290912B02A0912C02B0912D022F
:10077000281B390B4A0B5B0B273E31054105510500
:1007800040F4822F223010F070E005C070E082E06B
:1007900002C070E086EE682F61508091B60083FD44
:1007A000FCCF8091B200681709F46F5F20912A0294
:1007B00030912B0240912C0250912D02DA01C90197
:1007C0000196A11DB11D860F911DA11DB11D82179E
:1007D0009307A407B50710F4622F60958091B600C7
:1007E00083FDFCCF6093B300DFBE772319F085E073
:1007F0000E94B5001F910F91FF90EF90DF90089538
:10080000AFB7F894BB27E1E0E09383026093220244
:100810007093230280932402909325022093510326
:10082000309352034093530350935403AFBF0E943D
:1008300074030895AF92BF92CF92DF92EF92FF922E
:100840000F931F93F82E5A016B010E944B02AB01CC
:10085000BC01EE24960185018F2D0E942C021F9170
:100860000F91FF90EF90DF90CF90BF90AF900895E1
:100870001F920F920FB60F9211248F938091B000A8
:100880008093B0008091B60081FDFCCF8F910F90D6
:100890000FBE0F901F9018951F920F920FB60F92D8
:1008A00011240F931F932F933F934F935F936F9355
:1008B0007F938F939F93AF93BF93CF93DF93EF93E8
:1008C000FF932EB5E0910E03F0910F03309739F0AE
:1008D0008091F1029091F202E80FF91F208380913C
:1008E000F1029091F20201969093F2028093F1024C
:1008F00080E00E94E500C091F102D091F2022091C7
:100900001A0230911B02C217D30708F042C00091AF
:10091000E3031091E40340910E0350910F03CE01C5
:100920000A962817390708F4C901DA01AC0FBD1F70
:10093000F801EC0FFD1F9C012150304015C001153E
:10094000110531F080818EBD0DB407FEFDCF04C0CE
:100950001EBC0DB407FEFDCF8EB54115510509F043
:100960008C93219611963196C217D30740F381E0FC
:100970000E94E5000115110531F00C0F1D1FF80153
:1009800080818EBD01C01EBCD093F202C093F102E3
:1009900011C010920F0310920E031092E4031092F4
:1009A000E30310921B0210921A021092F2021092AC
:1009B000F1028EB5FF91EF91DF91CF91BF91AF9191
:1009C0009F918F917F916F915F914F913F912F9167
:1009D0001F910F910F900FBE0F901F901895789454
:1009E0001F920F920FB60F9211240F900FBE0F900F
:1009F0001F90189578941F920F920FB60F921124A2
:100A00000F900FBE0F901F90189578941F920F9221
:100A10000FB60F9211242F933F938F939F93AF9311
:100A2000BF932FB7F89433278091F7029091F80283
:100A3000A091F902B091FA020196A11DB11D809317
:100A4000F7029093F802A093F902B093FA022FBF35
:100A5000BF91AF919F918F913F912F910F900FBEBA
:100A60000F901F9018951F920F920FB60F9211249E
:100A70002F933F934F935F936F937F938F939F93A6
:100A8000AF93BF93EF93FF9340917800509179001B
:100A900078948FB7F894992720914602322F369593
:100AA000317021708FBF222381F580917A00877F7A
:100AB00080937A008091C002813021F0823009F069
:100AC0004EC008C0332341F05093140340931303E6
:100AD00080E118C0332349F48DE790E00197019637
:100AE0000197E1F70E9401033AC01092C002809181
:100AF0004F038823A1F510928A025093430240933A
:100B000042028EE00E94B5002AC08FB7F894992760
:100B10008FBF2FB7F894332780917A00582F5770E2
:100B2000482F4072987D942B952B8074977B982B3F
:100B300090619F77892F992780937A00887D842BF5
:100B4000852B87738061992780937A00887D842B19
:100B5000852B877B8069992780937A002FBFFF912F
:100B6000EF91BF91AF919F918F917F916F915F9125
:100B70004F913F912F910F900FBE0F901F9018959E
:100B80001F920F920FB60F9211240F900FBE0F906D
:100B90001F9018951F920F920FB60F9211240F906D
:100BA0000FBE0F901F9018951F920F920FB60F92C5
:100BB00011240F900FBE0F901F9018951F920F9247
:100BC0000FB60F9211240F900FBE0F901F90189523
:100BD0001F920F920FB60F9211240F900FBE0F901D
:100BE0001F9018951F920F920FB60F9211240F901D
:100BF0000FBE0F901F9018951F920F920FB60F9275
:100C000011240F900FBE0F901F9018951F920F92F6
:100C10000FB60F9211240F900FBE0F901F901895D2
:100C20001F920F920FB60F9211242F933F934F9361
:100C30005F936F937F938F939F93AF93BF93EF9344
:100C4000FF938091B0008093B0008091B60081FD49
:100C5000FCCF8091B30099270196AA27BB2720914A
:100C60002A0230912B0240912C0250912D02280F24
:100C7000391F4A1F5B1F20932A0230932B02409397
:100C80002C0250932D0278940E947403FF91EF91EF
:100C9000BF91AF919F918F917F916F915F914F9194
:100CA0003F912F910F900FBE0F901F90189521E04C
:100CB00020939002209310032091840030918500AE
:100CC000BC01C9010E94A00108951F93982F1FB76E
:100CD000F89480910E02823099F58091070289176D
:100CE00079F58091050220E030E08F3F11F421E09A
:100CF00030E0232BF1F49FEF909307028F3F19F41C
:100D00002FEF30E00DC0282F3327F901E45BFD4FB2
:100D10008081809305028F3F11F4909306029083A7
:100D20002093490281E080930E0280E00E94B5008A
:100D300005C08FEF8093070210920E0221E001C0E0
:100D400020E0812F99278FBF90E0213009F491E0B6
:100D500081E09827892F99271F9108958FB7F894DC
:100D6000282F3327922F80910A02882331F4809113
:100D70000F02823011F42FBF13C09FBF8FB7F894BA
:100D8000282F332780910F02882369F482E0809313
:100D90000F0210920A022FBF0E94EE00209A289A9A
:100DA00081E090E008952FBF80E00E94130180E071
:100DB00090E008950F931F93982F1FB7F894809198
:100DC0000F02823099F580910A02891779F5809196
:100DD000080220E030E08F3F11F421E030E0232BC7
:100DE000F1F49FEF90930A028F3F19F42FEF30E058
:100DF0000DC0282F3327F901E257FD4F80818093E2
:100E000008028F3F11F490930902908320938F0280
:100E100081E080930F0289E00E94B50005C08FEF4A
:100E200080930A0210920F0201E001C000E0812FBE
:100E300099278FBF1FB7F89480910F02882311F470
:100E40000E94DC00812F99278FBF90E0013009F4C8
:100E500091E081E09827892F99271F910F9108959C
:100E600080915102823031F481E08093510282E01E
:100E70000E94B500089580935503882311F484E0FF
:100E800001C081E08093510282E00E94B500089584
:100E90004F925F926F927F928F929F92AF92BF928A
:100EA000CF92DF92EF92FF920F931F93CF93DF9336
:100EB0002C0180911902882309F083C18091E503F8
:100EC000853009F07EC10E94AE06882309F479C1FD
:100ED00080913C03882309F074C1B20182E00E9432
:100EE000FD01882311F490E003C0F20196A59F70E4
:100EF0008091C102981781F09093C102289885ECE7
:100F00008EBD0DB407FEFDCF8EB590689EBD0DB4AD
:100F100007FEFDCF8EB5289AE20121968981F20164
:100F2000218140E09927982F88273327822B932B04
:100F300087749C7C8154984809F441E0442301F172
:100F4000289886E88EBD0DB407FEFDCF8EB51EBC79
:100F50000DB407FEFDCF8EB5289A99278F7190703A
:100F600020918B0240914D02240F312D311D43E021
:100F7000359527954A95E1F7281739070CF421C1D3
:100F8000289882EC8EBD0DB407FEFDCF8EB589E0AA
:100F90008EBD0DB407FEFDCF8EB5289A0E946A0162
:100FA0007B018C01B20184E00E94FD01882319F4C9
:100FB000E0E0F0E006C0D2018C918550F201E80F2C
:100FC000F11D289881E88EBD0DB407FEFDCF8EB5CA
:100FD0001EBC0DB407FEFDCF8EB5289A8F718930E7
:100FE00079F0289882EC8EBD0DB407FEFDCF8EB54A
:100FF00086E08EBD0DB407FEFDCF8EB5289AE1C008
:101000008FB7F89499272F9A20918400309185000A
:101010008FBF2F98289880E68EBDD2019C910DB489
:1010200007FEFDCF8EB59EBD792F7250773010F43C
:10103000672F01C067E0DE01962F4D910DB407FECA
:10104000FDCF8EB54EBD9150C1F76150C60FD11D79
:101050006F5F21962E193F092E553F4F3901882485
:1010600077FC8094982C6E0C7F1C801E911E30970C
:1010700019F4972F961B42C02081E1808281A380C2
:101080009927AA27BB27BA2FA92F982F882733275C
:1010900044275527522F442733272227FF24002790
:1010A00011278701FF24EE242E293F29402B512BA5
:1010B000BB24CC24DD242A293B294C295D29822B01
:1010C000932BA42BB52B86199709A809B9098383FB
:1010D000292F3A2F4B2F552722839D01442755272F
:1010E00021838B2F9927AA27BB278083C2CF2881F2
:1010F0000DB407FEFDCF21968EB52EBD9150B8F7E9
:101100000DB407FEFDCF8EB5289A289882EC8EBDCF
:101110000DB407FEFDCF8EB586E08EBD0DB407FE83
:10112000FDCF8EB5289A3097D1F12081E180828160
:10113000A3809927AA27BB27BA2FA92F982F8827E2
:10114000332744275527522F442733272227FF24AC
:10115000002711278701FF24EE242E293F29402B49
:10116000512BBB24CC24DD242A293B294C295D2981
:10117000822B932BA42BB52B860D971DA81DB91D73
:101180008383292F3A2F4B2F552722839D014427F4
:10119000552721838B2F9927AA27BB278083B2014C
:1011A00081E00E945E01F20160A671A682A693A66C
:1011B00086E08093E50384E08093190280E090E06C
:1011C00002C085E090E0DF91CF911F910F91FF90D9
:1011D000EF90DF90CF90BF90AF909F908F907F90D7
:1011E0006F905F904F900895AF92BF92CF92DF9231
:1011F000EF92FF920F931F93CF93DF9380913C0365
:10120000882309F402C10E94AE06882309F4FDC0B8
:101210008FB7F8949927C0918C02D0918D028FBF1F
:1012200010923C0328988FE88EBD0DB407FEFDCFC9
:101230008EB51EBC0DB407FEFDCF8EB5289A982F33
:1012400080911902833011F0873031F485E080936A
:10125000E50388E080931902A92EBB24A2FE63C097
:1012600080911902863019F41092190203C0882364
:1012700009F059C0943009F045C0289886E88EBD21
:101280000DB407FEFDCF8EB51EBC0DB407FEFDCF1D
:10129000FEB4289A2FE1F22280914D02982F969564
:1012A0009695EF2DE91B8E0F80934D02009126023B
:1012B00010912702F80184A58B7F84A7B80183E0F1
:1012C0000E945E01F801F6A60E946A017B018C0172
:1012D000C0902602D0902702B60181E00E945E01F4
:1012E000CE19DF092797CE01AA2797FDA095BA2F1F
:1012F0008E0D9F1DA01FB11FF60180A791A7A2A769
:10130000B3A70EC0E0912602F091270284A5877F43
:1013100084A7E0912602F091270284A58D7F84A7FF
:1013200085E080931902A3FE70C080911902843079
:1013300009F04EC085E08093E50310921902809178
:101340002802833019F4109228025FC0C091ED0387
:10135000D091EE03CE010E948F01882389F18A810A
:1013600029819927982F88273327822B932B8774DD
:101370009C7C8154984821F58F812E819927982F44
:1013800088273327822B932B8F5F9F4FC9F090E0E4
:1013900080911003882309F491E0992389F012E0E9
:1013A0001093900281E080931003809184009091CB
:1013B000850069E973E00E94A0011093280225C00E
:1013C000109228021092520280E00E943B071DC03A
:1013D0008530D9F420918B02289886E88EBD0DB413
:1013E00007FEFDCF8EB51EBC0DB407FEFDCF8EB53A
:1013F000289A8F71922F96959695891B280F209386
:101400008B0289E08093190208C0909119029923F8
:1014100009F4E5C2993009F012C2289880E28EBD25
:101420000DB407FEFDCF8EB51EBC0DB407FEFDCF7B
:101430008EB5482F5527433008F496C3842F99273B
:101440008A970CF091C31EBCE0912602F09127020E
:101450004083542F5250573010F4452F01C047E0BD
:10146000DF011196242FFD0160E070E00DB407FE4E
:10147000FDCF8EB51EBC992781936827062E6295F5
:10148000607F6025072E762F62956F700626669521
:1014900076276727660F660F660F6025215031F7A4
:1014A0004150A40FB11D4F5F1196E0912602F091BB
:1014B0002702818190E08770823009F491E09923BE
:1014C00049F020E030E080912802823081F421E070
:1014D00030E00DC08FB7F894282F332790E080912B
:1014E0003603833008F491E02FBF292F3327232BB5
:1014F00009F45CC0952F941B18C00DB407FEFDCFF6
:101500008EB51EBC8C938D916827062E6295607FE8
:101510006025072E762F62956F70062666957627D2
:101520006727660F660F660F6025915030F70DB480
:1015300007FEFDCF8EB51EBC9B012827022E2295EB
:10154000207F2025032E322F22952F7002262695EC
:1015500032272327220F220F220F20250DB407FE4A
:10156000FDCF8EB51EBC2827022E2295207F202578
:10157000032E322F22952F700226269532272327FD
:10158000220F220F220F20250DB407FEFDCF8EB5AE
:10159000E0912602F091270285A7289A15E0109382
:1015A000E50310921902232B31F015C20DB407FE8A
:1015B000FDCF8EB5D9C2E0902602F09027026701D8
:1015C0000894C11CD11CF701818190E0282F33279A
:1015D000277030702230310509F491E080912802A3
:1015E000992321F1823009F025C1F7019381E0911F
:1015F000ED03F091EE038381981709F01BC12230AF
:10160000310509F017C180916F008D7F80936F00C5
:1016100010921003BF0180E00E945E011092280228
:101620001092520280E00E943B0704C18823C9F453
:10163000C7010E94CA018823A1F01093C20282E070
:101640008093C3021092C402F70183818093C50284
:1016500082EC92E00E944807882319F483E080938B
:1016600028020091840010918500C7010E94CA01E0
:10167000882311F0045E1C4F1093F4020093F302D0
:1016800080918400909185009801281B390B1216D7
:101690001306A4F480915202882369F490E08091AB
:1016A0001003882309F491E0992341F0C9010E94B5
:1016B000570680E801C0806880935202F601808559
:1016C00027819927582F44273327422B532B80916A
:1016D0002E02282F3327F901EE0FFF1FE35CFC4F8A
:1016E00080819181709111038417950769F4F90144
:1016F000E951FC4F8081871709F467C0872F8F5FFE
:101700008093110380831DC000E010E080E090E032
:10171000CDE3D3E0E7EEF3E0DF01682F9C018881A1
:1017200099818417950779F420932E0290911103E3
:101730008C91891709F449C0892F8F5F8093110319
:101740008C9300E829C08081972F981B091710F40B
:10175000092F122F6F5FC9010196119622963196BB
:1017600085309105D1F66530B9F410932E02A12F82
:10177000BB27FD01EE0FFF1FE35CFC4F518340834D
:10178000809111038F5F80931103FD01E951FC4F9C
:101790008083A151BC4F1C9290911103892F8F77A8
:1017A0008F3779F40F3768F0E7EEF3E0292F2078D0
:1017B00080818F6789132083319683E0EC3EF807A0
:1017C000B9F780912E02282F3327F6019281A22F9C
:1017D000BB27FD01E151FC4F808180FF07C0FD0167
:1017E000E95CFC4F8081981729F102C081608083F9
:1017F000A95CBC4F9C93DFB6F8948091360383308C
:10180000B0F4E0914E03E80FE33008F0E350FF2717
:10181000EE0FFF1FE45EFD4F00811181F182E08237
:101820008F5F8093360383E00E94B50078018D2D91
:1018300099278FBFF0922702E0922602C3C0892F1A
:101840008150833008F09CC081508230E0F43091A8
:10185000E5033130C1F420E080911003882309F4BE
:1018600021E0222381F02F9883E08093900230932F
:10187000100380918400909185006BE273E00E94D8
:10188000A00182E068C0933009F042C08091E50376
:10189000833009F097C00E94AE068823C9F12898CA
:1018A0008FE88EBD0DB407FEFDCF8EB51EBC0DB406
:1018B00007FEFDCF8EB5289A8091810080648093C9
:1018C000810080E286BB80916F00806280936F0010
:1018D00090914802289888EC8EBD0DB407FEFDCF8C
:1018E0008EB590669EBD0DB407FEFDCF8EB5289ACD
:1018F000289882EC8EBD0DB407FEFDCF8EB586E034
:101900008EBD0DB407FEFDCF8EB5289A84E023C0AE
:10191000809119028150823000F58091E503853075
:10192000E1F40E94AE068823C1F0289882EC8EBDB7
:101930000DB407FEFDCF8EB583E08EBD0DB407FE5E
:10194000FDCF8EB5289A80916F008F7D80936F00B8
:1019500010923C0383E08093E5039091190291304B
:1019600041F48091E5038330B1F52F9A9093E5031C
:1019700025C0923039F58091E503833061F51EC0B2
:10198000973001F50E94AE068823E1F0909148025D
:10199000289888EC8EBD0DB407FEFDCF8EB59066FD
:1019A0009EBD0DB407FEFDCF8EB5289A8091E5034C
:1019B000853021F484E08093E50304C088E08093BF
:1019C000190204C080911902883029F4109219027A
:1019D00081E00E94B50080911902882309F5809169
:1019E000E5038530D1F480913C038823B1F48091E4
:1019F0002802882391F480915202882371F490E0A8
:101A000080911003882309F491E0992331F00E941A
:101A1000300780911902882319F487E00E94B500ED
:101A200080911003823009F092C010921003F09060
:101A30009002F2E0FF1609F466C023E0F21609F402
:101A40006AC081E0F81609F082C02091F30230915B
:101A5000F4028091840090918500409152024038B8
:101A600029F4109252020E94300771C08901081BAC
:101A7000190B47FF03C010161106ECF0C0914E027F
:101A8000D0914F02809128028823A9F4CE010E94B0
:101A900048079927882351F48CA58E7F8CA7F09254
:101AA0002802D093EE03C093ED0329C09927F82EA6
:101AB000882329F102C065E0F62E20915202822F80
:101AC00099278F77019759F420782260209352024A
:101AD00080E198E00E9409020E94570638C027FF63
:101AE0000AC0101611063CF480E880935202C80127
:101AF0000E94570602C0109252028F2D09C083E047
:101B00008093520224C0109228021092520280E068
:101B10000E943B071CC08091E503823019F4F092CB
:101B2000E50313C080911902863079F410921902EE
:101B3000289881E88EBD0DB407FEFDCF8EB51EBC82
:101B40000DB407FEFDCF8EB5289A0E94C90D8FB740
:101B5000F894282F332780914702813061F081E08B
:101B6000809347022FBF4ACB289A85E08093E503F4
:101B70001092190230CF109247022FBFDF91CF9100
:101B80001F910F91FF90EF90DF90CF90BF90AF909B
:101B900008958FB7F894282F332780914702882320
:101BA00029F08068809347022FBF089581E08093D9
:101BB00047022FBF0E94F408089578941F920F9255
:101BC0000FB60F9211242F933F934F935F936F9310
:101BD0007F938F939F93AF93BF93EF93FF93E6E829
:101BE000F0E080819181208131818FB7F89499272D
:101BF00030938D0220938C0221E020933C038FBF11
:101C00000E94C90DFF91EF91BF91AF919F918F916C
:101C10007F916F915F914F913F912F910F900FBEE8
:101C20000F901F90189578941F920F920FB60F92F5
:101C300011242F933F934F935F936F937F938F93D1
:101C40009F93AF93BF93EF93FF9380916F008D7F2E
:101C500080936F0078949FB7F8948091100381303F
:101C600019F482E080931003892F99278FBF0E9477
:101C7000C90DFF91EF91BF91AF919F918F917F918E
:101C80006F915F914F913F912F910F900FBE0F90E9
:101C90001F9018958FB7F894282F3327809147020B
:101CA000815080934702803811F02FBF089581E062
:101CB000809347022FBF0E94F40808951F93FC01F0
:101CC0008FE38287809118028F5F8093180283834D
:101CD0002FB7F8943327809147028F5F8093470294
:101CE0002FBF80915102882311F015E00DC0F093B1
:101CF0001603E093150381E08093510210921203C2
:101D000082E00E94B50010E00E944A0E812F9927C0
:101D10001F9108951F93CF93DF93182FFA01A22FDD
:101D20002D3118F086E090E08EC0EA01219689817D
:101D30002181B0E09927582F44273327422B532B7A
:101D4000CA0187749C7C8154984809F4B1E0BB2394
:101D500049F4CA0180739070816498688183892FE7
:101D600099278983A35FA0832FB7F89433278091A5
:101D70000202909103022FBF8087892F99278187C4
:101D80002FB7F8943327809104022FBF99278483BB
:101D9000158213876683872F992787838FB7F894D7
:101DA000282F332780910E02882371F482E08093DC
:101DB0000E02109207022FBFCF010E945E0E9927DC
:101DC000182F882399F00FC02FBFF0934B02E09398
:101DD0004A028FB7F894C82FDD272C2F80910E026E
:101DE000882399F406C080E00E946506812F992718
:101DF0002AC081E080930E021092490280E00E9486
:101E0000B500CFBF80E090E01EC080914C028F3FB4
:101E100089F4E0910602EE2369F010C010920502E9
:101E200004C0FF27E45BFD4F10821092060280E0A1
:101E300090E002C085E090E02FBF05C080910502D0
:101E40008F3F79F7EBCFDF91CF911F9108959F924C
:101E5000AF92BF92CF92DF92EF92FF920F931F93B8
:101E60005B016C019090040391FE20C02091FC0264
:101E70003091FD024091FE025091FF02E09000037C
:101E8000F09001030091020310910303DC01CB01E8
:101E9000821B930BA40BB50B8E159F05A007B107F2
:101EA00028F0ECEFF2E060E070E022C0E5E0F3E063
:101EB00090900D0391FE06C1209105033091060319
:101EC0004091070350910803E0900903F0900A0342
:101ED00000910B0310910C03A21AB30AC40AD50A8D
:101EE000AE14BF04C006D10608F4ECC061E070E097
:101EF00090FE04C080858D7F808708C02E0D3F1D19
:101F0000401F511F2083318342835383662321F076
:101F1000613009F0D7C09CC0809185028A3009F0F9
:101F200061C080918202882309F043C0AFE5B2E02E
:101F3000E9E1F3E08CE101900D928150E1F78FEF40
:101F40008093590280935A0283E980935E028091C4
:101F5000F5029091F602892B31F543E552E050935A
:101F6000F6024093F50289E28093530280910D02BC
:101F70008823A9F010920D022CE16FEF7FEF83E927
:101F80000E948A0E9927282F882349F081E08093A8
:101F90000D021092F6021092F502222321F481E044
:101FA0008093820206C080918202882311F40E94ED
:101FB000AC00109285028091E603882389F4809119
:101FC0001F039927982F8827209120033327822BDE
:101FD000932B019680932003892F992780931F03C9
:101FE0001092E6038FB7F894282F3327122F809191
:101FF0001102882389F491E0909311021092350325
:102000002FBF80911202882321F48BE00E94B5003B
:1020100059C09093130256C080913503882311F460
:102020002FBF50C080E00E94ED02882319F085E0A8
:1020300090E007C08091FB0281608093FB0280E00A
:1020400090E01FBF892B09F43DC00E94AC003AC04C
:102050009FB7F89420911102222319F421E030E077
:102060000FC080910B02813019F020E030E008C0F1
:1020700040E050E02150223010F441E050E09A015D
:10208000892F99278FBF2223E9F08FB7F894082F63
:102090001127902F80910B02813099F480911102C9
:1020A000813021F48AE00E94B50009C0823049F4F1
:1020B0008091350380930B0283E0809311020FBF60
:1020C00001C09FBF86E00E94B5001F910F91FF9055
:1020D000EF90DF90CF90BF90AF909F9008950F93B7
:1020E0001F93182F042FE82FFF27EE0FFF1FEB5031
:1020F000FD4F1182108210920D02E091F502F091D5
:10210000F602309721F08091500380FF13C081E0E8
:1021100080930D0203C082E10E94B5001123E1F417
:10212000002319F40E94A30002C00E94AC00109288
:10213000820212C020812D50332767817727762FA6
:10214000662786819927682B792BAF0183850E94AA
:102150008A0E882319F3DFCF1F910F9108952F92D4
:102160003F924F925F926F927F928F929F92AF9227
:10217000BF92CF92DF92EF92FF920F931F93CF9374
:10218000DF93CDB7DEB729970FB6F894DEBF0FBE49
:10219000CDBFE82FFF27E331F10508F0B6C4EA59B7
:1021A000FF4FEE0FFF1F0590F491E02D09948091F1
:1021B0005003882309F4A9C420E011E05AC42FB7C2
:1021C000F8943327809149028093070282E080933C
:1021D0000E022FBF80910702882309F096C48091D8
:1021E0004A0290914B020E945E0E082F1127002395
:1021F00009F48BC480E00E94650620914A02309168
:102200004B0280910D02882309F07FC46091F50292
:102210007091F6026217730709F077C4402F7EC0F1
:102220008091510210925102853091F440911B032C
:102230005527542F442780911C039927482B592B4D
:102240006627772780E00E941A04109285025DC4F9
:10225000863009F45AC4873009F457C48093510278
:1022600054C42FB7F8943327809147028F5F80932F
:1022700047022FBF40915102413081F580911203F6
:102280008F5F80931203863048F5209115033091BB
:102290001603809152028823C1F490E080911003CC
:1022A000882309F491E0992381F030934F02209321
:1022B0004E02409352028BED91E10E9409020E946E
:1022C00057061092550383E004C085E080935503C0
:1022D00082E0809351020E944A0E17C4109251026C
:1022E0000E944A0E10915503E0901503F0901603DA
:1022F000F70182858F3309F008C480E00E946506EB
:1023000080910D02882309F000C46091F50270915C
:10231000F6026E157F0509F0F8C3412F0E946F1079
:10232000F4C38FB7F894282F33278091360388237E
:1023300009F4EAC3E0914E03FF27EE0FFF1FE45EAE
:10234000FD4FE080F1802FBFF701828597812681C4
:102350008F3309F078C06385892F9927582F442738
:10236000822F9927482B592B8FB7F89499272091C2
:102370000202309103028FBF4217530721F04F5FD3
:102380005F4F09F07AC0633909F077C02FB7F8942E
:10239000332782B111E0812782B92FBFF7018485ED
:1023A00025859927582F44273327422B532B80917B
:1023B00019039927982F882720911A033327822BF6
:1023C000932B8417950700F540931A03852F9927BF
:1023D00080931903868527859927982F8827332787
:1023E000822B932B80931C03492F552740931B036B
:1023F000542F44279927482B592B6627772780E0AD
:102400000E941A0410928502F70182892389992774
:10241000582F44273327422B532B80911F03992792
:10242000982F8827209120033327822B932B841702
:10243000950718F540932003852F992780931F0354
:102440001093E6031AC0892F9927582F4427822F0B
:102450009927482B592B8FB7F8949927209102027E
:10246000309103028FBF4217530719F04F5F5F4F40
:1024700021F48FB7F89499278FBF9FB7F894809174
:102480004E03E82FFF27EE0FFF1FE45EFD4FF182A2
:10249000E0828F5F80934E03833010F010924E03E2
:1024A00080913603815080933603892F99278FBFFF
:1024B00038CF2FB72983F894209086023090870276
:1024C0004090880250908902662477248824EEE4A4
:1024D000AE2E73E8B72ECC24DD24EE24FF2400E0DA
:1024E00010E0222D332D442D552D662D772D882D6E
:1024F00090E00E9489172A833B834C835D836E831F
:102500007F8388879987822E932EA42EB52E24014F
:10251000350100E20E948718A22EB32EC42ED52EBC
:10252000A301920156954795379527952A0D3B1D96
:102530004C1D5D1D57FF05C05F772F5F3F4F4F4F0D
:102540005F4F209386023093870240938802509316
:1025500089026981862F99278FBF8FB7F8949927B1
:102560003093180320931703C6C080914402882338
:1025700061F5209147033091480340914903509100
:102580004A03EFB7F894FF2760912202709123026B
:102590008091240290912502E0905103F090520323
:1025A00000915303109154036E0D7F1D801F911FE6
:1025B000EFBF209347033093480340934903509360
:1025C0004A03109244020E9400040E944B026DC014
:1025D0000E944B025B016C018FB7F894992710920F
:1025E00083028FBF8091040381FF25C08091FC028C
:1025F0009091FD02A091FE02B091FF02A60195010B
:10260000281B390B4A0B5B0BE0900003F090010391
:102610000091020310910303E21AF30A040B150B55
:102620003FEFE3163FEFF3063FEF03073FE71307E4
:1026300011F061E009C04FEFE42E4FEFF42E4FEFA1
:10264000042F4FE7142F60E080910D0381FF21C01C
:102650008091050390910603A0910703B0910803B0
:10266000A6019501281B390B4A0B5B0BDA01C90146
:102670002091090330910A0340910B0350910C0300
:10268000281B390B4A0B5B0B2E153F0540075107E2
:102690002CF0662309F439C2A8019701121613061B
:1026A000140615062CF0C601B5010E94270F2DC295
:1026B00020934703309348034093490350934A03C0
:1026C00081E080934402C601B5010E9400041DC24E
:1026D0008FB7F894992710920F0310920E0310925F
:1026E000E4031092E30310921B0210921A0210925C
:1026F000F2021092F1028FBF08C22FB7F89433276D
:1027000080918F0280930A0282E080930F022FBF94
:1027100080910A02882309F0F8C1209A289A8091B2
:10272000E503882309F075C08EEF91E001970196CB
:102730000197E1F716982F9886E090E001970196AF
:102740000197E1F7169A289883EC8EBD0DB407FE29
:10275000FDCF8EB51EBC0DB407FEFDCF8EB5289AF9
:10276000289882EC8EBD0DB407FEFDCF8EB588E0B3
:102770008EBD0DB407FEFDCF8EB5289A8EEF91E089
:10278000019701960197E1F728988EEC8EBD0DB464
:1027900007FEFDCF8EB58DE48EBD0DB407FEFDCFD7
:1027A0008EB5289A289889EC8EBD0DB407FEFDCF12
:1027B0008EB587EC8EBD0DB407FEFDCF8EB5289A81
:1027C000289885EC8EBD0DB407FEFDCF8EB580E850
:1027D0008EBD0DB407FEFDCF8EB5289A1092C102B2
:1027E0008BE080934802289888EC8EBD0DB407FEDC
:1027F000FDCF8EB58BE68EBD0DB407FEFDCF8EB539
:10280000289A2F9A81E08093E50380E00E94DA06FF
:102810007CC10E94C90D79C12FB7F89433278091EC
:10282000350380930B0283E0809311022FBF109138
:102830000B028FB7F894282F3327922F80910C0228
:10284000882359F480911702833039F42FBF809187
:102850001502882309F059C102C09FBF56C182E00A
:102860008093C00210924F030E94010381E0809385
:1028700015021093450249C10E94880246C1809109
:102880001402813009F041C175986D988DE00E9465
:10289000B5003BC18FB7F894E82E809117028330C2
:1028A00009F041C080910C028823E9F5809129024A
:1028B000882309F014C108C1EF2DE695E695E69549
:1028C000FF274F2D5527E75DFD4F9A012770307088
:1028D00081E090E002C0880F991F2A95E2F7809569
:1028E0002081282320830093160212C00F5F1F4F00
:1028F0000130110511F400E010E0F02E802F0E944D
:1029000074028823C9F60C151D0581F74FEF50E0BE
:10291000409384028FEF80930C0281E08093170232
:102920008FE00E94B500EFBE109214028091130256
:10293000813011F40E9488028FB7F8949927109281
:10294000130210921202D7CE10921502C0904202CA
:10295000D0904302A0908A02B09045028FB7F894BD
:10296000E82E80911102833009F041C080910B0262
:102970008B15E9F58091FB02882309F0BFC0B5C033
:10298000EF2DE695E695E695FF274F2D5527E55067
:10299000FD4F9A012770307081E090E002C0880FEF
:1029A000991F2A95E2F780952081282320830093A0
:1029B000100212C00F5F1F4F0130110511F400E02B
:1029C00010E0F02E802F0E94ED028823C9F6081532
:1029D000190581F74FEF50E0409335038FEF809357
:1029E0000B0281E0809311028AE00E94B500EFBEE5
:1029F000BB2009F08AC0AA2029F00E94AC003FEF5A
:102A0000C32ED32EE0918502EA3008F07EC0EF5F3E
:102A1000E0938502E150FF27EE0FFF1FEF5DFC4FB3
:102A2000C1828D2D9927808370C02FB7F8943327EA
:102A30008091840280930C0283E0809317022FBF61
:102A400080910C02882309F060C06D9A759A0E94EB
:102A50004B02AB01BC0181E0E82E0AE010E020E06F
:102A600030E081E00E942C0250C01092C0024DC0A4
:102A7000110F90915003812F8923B1F0E22FFF278E
:102A8000EE0FFF1FEB50FD4F11821082812F8095BA
:102A9000982390935003222339F40E94AC001092A3
:102AA0008202110F21E0E5CF2F5F283008F32DC0FF
:102AB00080910D02E82FFF27EE0FFF1FEB50FD4F17
:102AC0006081718141E02ACC81E080930C021092F8
:102AD000170280917A008F7780937A0024CF8091BB
:102AE0001602C82EDD24860101CF81E080930B02FF
:102AF00010921102809312028CE077CF8091100225
:102B0000882E9924840156CF2FBF29960FB6F894AA
:102B1000DEBF0FBECDBFDF91CF911F910F91FF9010
:102B2000EF90DF90CF90BF90AF909F908F907F906D
:102B30006F905F904F903F902F90089580914B033E
:102B40008F3FB1F0282F3327F901E15DFD4F8081E0
:102B500080934B038F3F11F48093EC038FEF8083BE
:102B60002F3F31F0822F0E94AF1081E090E0089556
:102B700080E090E008950F931F930FB7F89414BE70
:102B800088E10FB6F89480936000109260000FBE49
:102B900043E150E06FEF70E08FE292E00E94741921
:102BA0008FEF80934B038093EC0356985E98549874
:102BB0005C9880916F008F7D80936F00209A289A97
:102BC000279A2F980E9A169A81E992E090932702FD
:102BD0008093260210928B028AE580934D0281E059
:102BE0008093810080E28093B60083E08093B100FF
:102BF00080918400909185004AE720918400309173
:102C000085002817390708F44150442311F0C90101
:102C1000F4CF9091B2008091B2008917E1F3209136
:102C20008400309185009091B2008091B2008917A4
:102C3000E1F38091840090918500821B930B409674
:102C4000E5E096958795EA95E1F790934D0380939B
:102C50004C031092B1008091B1008093810080916B
:102C600081008093B6001092B200109285001092FD
:102C700084008FEF87BB87B386BB8091B6008571D8
:102C8000E1F70A9A099A089A129A119A109A18B8B2
:102C90008FEF87B90C98149810927A0010928500E3
:102CA0001092840080916F00816080936F0080910A
:102CB0008100887F8260809381000E949E15882316
:102CC000E1F7109229021092FB028FEF80938E029F
:102CD00080E00E941301182F8091B60080628093DB
:102CE000B6008091B60081FDFCCF82E08093B000F9
:102CF0008091B60080FDFCCF83E08093B10080918D
:102D0000B60083FDFCCF86EE8093B3008091700007
:102D10008260809370000E94740380910002909101
:102D200001020196AA27BB2780938602909387020F
:102D3000A0938802B093890286E593E090931D02E8
:102D400080931C028F9690931F0280931E0284EB47
:102D500093E090932102809320028FEF9FEF909356
:102D60003E0380933D039093400380933F039093F1
:102D700042038093410390934403809343039093D1
:102D8000460380934503809100028295807F809363
:102D900018028FEF80934C020E949E158823E1F762
:102DA000802F99278FBF789410921C0381E0809325
:102DB0001B03809100029091010280931E03892FD2
:102DC000992780931D032FB7F894332780914702EA
:102DD0008F5F809347022FBF809151028823F1F4C7
:102DE000809119028823D1F48091E503813049F460
:102DF00090E080911003882309F491E0992371F009
:102E000002C0853059F083E0809319020E94C90DF9
:102E100085E0809351020E944A0E04C00E944A0E2F
:102E20000E94AC008FB7F894482F552757C0809167
:102E30007000992783709070892B19F4E5E0F0E019
:102E400014C08091B6008A71E1F78091B30090912F
:102E5000B200891B8C3038F08091B200853F18F4A5
:102E6000E3E0F0E002C0E2E0F0E080916E00867006
:102E700009F580916F008E72E9F4809171008E7275
:102E8000C9F40CB407FC16C08091C100887191F49C
:102E90008091C900887171F48091BC0082FD0AC0E4
:102EA00080917A0087FF03C081E090E005C085E053
:102EB00090E002C080E090E023B78E1708F4E82F7E
:102EC000FF27EE50FF4FE491207F2160E22BE3BF0C
:102ED00078948895F89483B78E7F83BF80914B0355
:102EE0008F3F09F4A4CF282F3327F901E15DFD4F6F
:102EF000808180934B038F3F11F48093EC038FEF1D
:102F000080832F3F09F493CF4FBF822F0E94AF10D1
:102F100089CFACE2B0E0EFE8F7E10C943D19222E46
:102F2000332E442E552E662E772E882E992EFE0196
:102F30003196A8E01192AA95E9F729823A824B824C
:102F40005C826D827E828F829886FE013996B8E01F
:102F50001192BA95E9F7A986BA86CB86DC86ED860A
:102F6000FE860F87188B89819A81AB81BC8189A7E6
:102F70009AA7ABA7BCA77C018D018FEF9FEFA0E0C4
:102F8000B0E0E822F9220A231B2389A59AA5ABA564
:102F9000BCA51D014424552489859A85AB85BC8533
:102FA0008DA39EA3AFA3B8A75C016D018FEF9FEF28
:102FB000A0E0B0E0A822B922CA22DB228DA19EA106
:102FC000AFA1B8A53D0188249924C801B701A60185
:102FD00095010E941E1969A37AA38BA39CA3C80123
:102FE000B701A40193010E941E197B018C01C2014B
:102FF000B101A60195010E941E195B016C01C2017D
:10300000B101A40193010E941E193B014C01EA0C7D
:10301000FB1C0C1D1D1D89A19AA1ABA1BCA19D018A
:10302000442755272E0D3F1D401F511F2A153B05D4
:103030004C055D0540F480E090E0A1E0B0E0680E52
:10304000791E8A1E9B1ECA01AA27BB27860D971DC3
:10305000A81DB91D8D8F9E8FAF8FB8A3A9013327EF
:10306000222789A19AA1ABA1BCA1A070B070280FA2
:10307000391F4A1F5B1F298F3A8F4B8F5C8FA98C9A
:10308000BA8CCB8CDC8CED8CFE8C0F8D18A1FE01E4
:10309000719698E011929A95E9F7ED8AFE8A0F8B66
:1030A000188F2D813E814F8158856DA17EA18FA102
:1030B00098A50E941E193B014C012D853E854F8528
:1030C000588969A57AA58BA59CA50E941E192D89F2
:1030D0003E894F89588D260F371F481F591F260DCF
:1030E000371D481D591D2D8B3E8B4F8B588F6D887A
:1030F0007E888F88988C2A2D3B2D4C2D5D2D662D3A
:10310000772D882D992DE2E1AC960C945919A0E108
:10311000B0E0EDE8F8E10C943D19222E332E442E58
:10312000552E662E772E882E992E002309F466C020
:1031300088E0FE01319611928A95E9F729833A8356
:103140004B835C836D837E838F829887E0E2E01BF4
:103150001E16CCF52D813E814F815885602F772733
:1031600067FD7095DA01C901062E04C0B695A795D2
:10317000979587950A94D2F78D879E87AF87B88BEE
:1031800004C0220F331F441F551FEA95D2F78981CF
:103190009A81AB81BC8104C0B695A7959795879518
:1031A0006A95D2F7282B392B4A2B5B2B29873A8734
:1031B0004B875C8729843A844B845C846D847E844D
:1031C0008F8498881BC01D861E861F86188A2E2F06
:1031D000332727FD3095309521953F4F8D819E8176
:1031E000AF81B88504C0B695A795979587952A9520
:1031F000D2F789879A87AB87BC87DCCF222D332D06
:10320000442D552D662D772D882D992DE2E1609660
:103210000C945919AA1BBB1B51E107C0AA1FBB1F65
:10322000A617B70710F0A61BB70B881F991F5A9552
:10323000A9F780959095BC01CD010895629FD001BA
:10324000739FF001829FE00DF11D649FE00DF11D61
:10325000929FF00D839FF00D749FF00D659FF00D10
:103260009927729FB00DE11DF91F639FB00DE11DFD
:10327000F91FBD01CF01112408952F923F924F9263
:103280005F926F927F928F929F92AF92BF92CF92F6
:10329000DF92EF92FF920F931F93CF93DF93CDB7FF
:1032A000DEB7CA1BDB0B0FB6F894DEBF0FBECDBF77
:1032B00009942A88398848885F846E847D848C8448
:1032C0009B84AA84B984C884DF80EE80FD800C8151
:1032D0001B81AA81B981CE0FD11D0FB6F894DEBF34
:1032E0000FBECDBFED010895DC0101C06D934150CB
:0832F0005040E0F70895FFCF04
:0E32F8000100010022FFFFFFFFFFFF010101A7
:00000001FF
